{
  "contractName": "LendingPool",
  "abi": [
    {
      "constant": true,
      "inputs": [],
      "name": "nextLoanID",
      "outputs": [
        {
          "name": "",
          "type": "uint256"
        }
      ],
      "payable": false,
      "stateMutability": "view",
      "type": "function"
    },
    {
      "constant": true,
      "inputs": [
        {
          "name": "",
          "type": "address"
        }
      ],
      "name": "investorBalance",
      "outputs": [
        {
          "name": "",
          "type": "uint256"
        }
      ],
      "payable": false,
      "stateMutability": "view",
      "type": "function"
    },
    {
      "constant": true,
      "inputs": [],
      "name": "totalFunds",
      "outputs": [
        {
          "name": "",
          "type": "uint256"
        }
      ],
      "payable": false,
      "stateMutability": "view",
      "type": "function"
    },
    {
      "constant": true,
      "inputs": [],
      "name": "poolinterest",
      "outputs": [
        {
          "name": "",
          "type": "uint256"
        }
      ],
      "payable": false,
      "stateMutability": "view",
      "type": "function"
    },
    {
      "constant": true,
      "inputs": [
        {
          "name": "",
          "type": "uint256"
        }
      ],
      "name": "loans",
      "outputs": [
        {
          "name": "borrower",
          "type": "address"
        },
        {
          "name": "principal",
          "type": "uint256"
        },
        {
          "name": "collateral",
          "type": "uint256"
        },
        {
          "name": "interestRate",
          "type": "uint256"
        },
        {
          "name": "endTime",
          "type": "uint256"
        },
        {
          "name": "repaid",
          "type": "bool"
        },
        {
          "name": "loanID",
          "type": "uint256"
        }
      ],
      "payable": false,
      "stateMutability": "view",
      "type": "function"
    },
    {
      "constant": true,
      "inputs": [
        {
          "name": "",
          "type": "uint256"
        }
      ],
      "name": "investments",
      "outputs": [
        {
          "name": "investor",
          "type": "address"
        },
        {
          "name": "amount",
          "type": "uint256"
        },
        {
          "name": "timeDeposited",
          "type": "uint256"
        }
      ],
      "payable": false,
      "stateMutability": "view",
      "type": "function"
    },
    {
      "inputs": [
        {
          "name": "_poolInterestRate",
          "type": "uint256"
        }
      ],
      "payable": false,
      "stateMutability": "nonpayable",
      "type": "constructor"
    },
    {
      "anonymous": false,
      "inputs": [
        {
          "indexed": true,
          "name": "investor",
          "type": "address"
        },
        {
          "indexed": false,
          "name": "amount",
          "type": "uint256"
        }
      ],
      "name": "InvestmentMade",
      "type": "event"
    },
    {
      "anonymous": false,
      "inputs": [
        {
          "indexed": true,
          "name": "borrower",
          "type": "address"
        },
        {
          "indexed": false,
          "name": "loanID",
          "type": "uint256"
        },
        {
          "indexed": false,
          "name": "principal",
          "type": "uint256"
        },
        {
          "indexed": false,
          "name": "endTime",
          "type": "uint256"
        }
      ],
      "name": "LoanCreated",
      "type": "event"
    },
    {
      "anonymous": false,
      "inputs": [
        {
          "indexed": true,
          "name": "borrower",
          "type": "address"
        },
        {
          "indexed": false,
          "name": "principal",
          "type": "uint256"
        }
      ],
      "name": "LoanRepaid",
      "type": "event"
    },
    {
      "constant": false,
      "inputs": [],
      "name": "deposit",
      "outputs": [],
      "payable": true,
      "stateMutability": "payable",
      "type": "function"
    },
    {
      "constant": false,
      "inputs": [
        {
          "name": "_principal",
          "type": "uint256"
        },
        {
          "name": "_durationInDays",
          "type": "uint256"
        }
      ],
      "name": "createLoan",
      "outputs": [],
      "payable": false,
      "stateMutability": "nonpayable",
      "type": "function"
    },
    {
      "constant": false,
      "inputs": [
        {
          "name": "_loanID",
          "type": "uint256"
        }
      ],
      "name": "repayLoan",
      "outputs": [],
      "payable": true,
      "stateMutability": "payable",
      "type": "function"
    },
    {
      "constant": true,
      "inputs": [],
      "name": "getInvestmentCount",
      "outputs": [
        {
          "name": "",
          "type": "uint256"
        }
      ],
      "payable": false,
      "stateMutability": "view",
      "type": "function"
    },
    {
      "constant": true,
      "inputs": [],
      "name": "getLoanCount",
      "outputs": [
        {
          "name": "",
          "type": "uint256"
        }
      ],
      "payable": false,
      "stateMutability": "view",
      "type": "function"
    }
  ],
  "bytecode": "0x6080604052600160055534801561001557600080fd5b50604051602080610dd78339810180604052602081101561003557600080fd5b81019080805190602001909291905050508060018190555050610d7a8061005d6000396000f3fe6080604052600436106100a9576000357c01000000000000000000000000000000000000000000000000000000009004806323915a39146100ae57806333941681146100d9578063521968121461013e578063968ed6001461016957806398cd90b514610194578063ab7b1c89146101d9578063b8d8469714610207578063d0e30db014610232578063e0b1ad6d1461023c578063e1ec3c6814610267578063fd345c8a14610310575b600080fd5b3480156100ba57600080fd5b506100c3610399565b6040518082815260200191505060405180910390f35b3480156100e557600080fd5b50610128600480360360208110156100fc57600080fd5b81019080803573ffffffffffffffffffffffffffffffffffffffff16906020019092919050505061039f565b6040518082815260200191505060405180910390f35b34801561014a57600080fd5b506101536103b7565b6040518082815260200191505060405180910390f35b34801561017557600080fd5b5061017e6103c4565b6040518082815260200191505060405180910390f35b3480156101a057600080fd5b506101d7600480360360408110156101b757600080fd5b8101908080359060200190929190803590602001909291905050506103ca565b005b610205600480360360208110156101ef57600080fd5b8101908080359060200190929190505050610754565b005b34801561021357600080fd5b5061021c6109e9565b6040518082815260200191505060405180910390f35b61023a6109f6565b005b34801561024857600080fd5b50610251610be3565b6040518082815260200191505060405180910390f35b34801561027357600080fd5b506102a06004803603602081101561028a57600080fd5b8101908080359060200190929190505050610be9565b604051808873ffffffffffffffffffffffffffffffffffffffff1673ffffffffffffffffffffffffffffffffffffffff1681526020018781526020018681526020018581526020018481526020018315151515815260200182815260200197505050505050505060405180910390f35b34801561031c57600080fd5b506103496004803603602081101561033357600080fd5b8101908080359060200190929190505050610c67565b604051808473ffffffffffffffffffffffffffffffffffffffff1673ffffffffffffffffffffffffffffffffffffffff168152602001838152602001828152602001935050505060405180910390f35b60055481565b60046020528060005260406000206000915090505481565b6000600380549050905090565b60005481565b600082111515610468576040517f08c379a00000000000000000000000000000000000000000000000000000000081526004018080602001828103825260258152602001807f4c6f616e207072696e636970616c206d7573742062652067726561746572207481526020017f68616e203000000000000000000000000000000000000000000000000000000081525060400191505060405180910390fd5b81600460003373ffffffffffffffffffffffffffffffffffffffff1673ffffffffffffffffffffffffffffffffffffffff1681526020019081526020016000205410151515610545576040517f08c379a00000000000000000000000000000000000000000000000000000000081526004018080602001828103825260218152602001807f496e73756666696369656e742066756e647320746f2074616b652061206c6f6181526020017f6e0000000000000000000000000000000000000000000000000000000000000081525060400191505060405180910390fd5b60006301e13380826001540281151561055a57fe5b049050600062015180830242019050610571610cc0565b60e0604051908101604052803373ffffffffffffffffffffffffffffffffffffffff16815260200186815260200186815260200184815260200183815260200160001515815260200160055481525090506003819080600181540180825580915050906001820390600052602060002090600702016000909192909190915060008201518160000160006101000a81548173ffffffffffffffffffffffffffffffffffffffff021916908373ffffffffffffffffffffffffffffffffffffffff1602179055506020820151816001015560408201518160020155606082015181600301556080820151816004015560a08201518160050160006101000a81548160ff02191690831515021790555060c0820151816006015550505060056000815480929190600101919050555084600460003373ffffffffffffffffffffffffffffffffffffffff1673ffffffffffffffffffffffffffffffffffffffff168152602001908152602001600020600082825403925050819055503373ffffffffffffffffffffffffffffffffffffffff167f1804eb76dc9809be7ef188388aa1aeb765881fd848377be891234e5c584345fe8260c00151878560405180848152602001838152602001828152602001935050505060405180910390a25050505050565b60008090505b60038054905081101561097757600060038281548110151561077857fe5b906000526020600020906007020190508281600601541480156107aa57508060050160009054906101000a900460ff16155b15610969576000606482600301548360010154028115156107c757fe5b04826001015401905080341015151561086e576040517f08c379a00000000000000000000000000000000000000000000000000000000081526004018080602001828103825260248152602001807f496e73756666696369656e742066756e647320746f207265706179207468652081526020017f6c6f616e0000000000000000000000000000000000000000000000000000000081525060400191505060405180910390fd5b60018260050160006101000a81548160ff0219169083151502179055503460008082825401925050819055508160010154600460003373ffffffffffffffffffffffffffffffffffffffff1673ffffffffffffffffffffffffffffffffffffffff168152602001908152602001600020600082825401925050819055508160000160009054906101000a900473ffffffffffffffffffffffffffffffffffffffff1673ffffffffffffffffffffffffffffffffffffffff167fc200a1f31dd659e356e0f112c82558e25f49f7b0f84438691cd96f5cb355882383600101546040518082815260200191505060405180910390a25050506109e6565b50808060010191505061075a565b506040517f08c379a00000000000000000000000000000000000000000000000000000000081526004018080602001828103825260208152602001807f4c6f616e206e6f7420666f756e64206f7220616c72656164792072657061696481525060200191505060405180910390fd5b50565b6000600280549050905090565b600034111515610a6e576040517f08c379a000000000000000000000000000000000000000000000000000000000815260040180806020018281038252601b8152602001807f596f75206d757374206465706f73697420736f6d65204574686572000000000081525060200191505060405180910390fd5b346000808282540192505081905550610a85610d16565b6060604051908101604052803373ffffffffffffffffffffffffffffffffffffffff1681526020013481526020014281525090506002819080600181540180825580915050906001820390600052602060002090600302016000909192909190915060008201518160000160006101000a81548173ffffffffffffffffffffffffffffffffffffffff021916908373ffffffffffffffffffffffffffffffffffffffff160217905550602082015181600101556040820151816002015550505034600460003373ffffffffffffffffffffffffffffffffffffffff1673ffffffffffffffffffffffffffffffffffffffff168152602001908152602001600020600082825401925050819055503373ffffffffffffffffffffffffffffffffffffffff167f07146ef3ff2146eaf34fa4d392d4c56663333b682654b3123bf270f9ec529f31346040518082815260200191505060405180910390a250565b60015481565b600381815481101515610bf857fe5b90600052602060002090600702016000915090508060000160009054906101000a900473ffffffffffffffffffffffffffffffffffffffff16908060010154908060020154908060030154908060040154908060050160009054906101000a900460ff16908060060154905087565b600281815481101515610c7657fe5b90600052602060002090600302016000915090508060000160009054906101000a900473ffffffffffffffffffffffffffffffffffffffff16908060010154908060020154905083565b60e060405190810160405280600073ffffffffffffffffffffffffffffffffffffffff16815260200160008152602001600081526020016000815260200160008152602001600015158152602001600081525090565b606060405190810160405280600073ffffffffffffffffffffffffffffffffffffffff1681526020016000815260200160008152509056fea165627a7a72305820b07eb95f7aacf6b467180e418615c473e26c4bc42135578f579523090f891dbc0029",
  "source": "// SPDX-License-Identifier: MIT\r\npragma solidity >=0.4.22 <0.9.0;\r\n\r\ncontract LendingPool{\r\n    uint256 public totalFunds;\r\n    uint256 public poolinterest;\r\n    \r\n    struct Investment{\r\n         address investor;\r\n        uint256 amount;\r\n        uint256 timeDeposited;\r\n    }\r\n    struct Loan {\r\n    address borrower;\r\n    uint256 principal;\r\n    uint256 collateral;\r\n    uint256 interestRate;\r\n    uint256 endTime;\r\n    bool repaid;\r\n    uint256 loanID;\r\n}\r\n    Investment[] public investments;\r\n    Loan[] public loans;\r\n    mapping(address=>uint256) public investorBalance;\r\n    uint256 public nextLoanID=1;\r\n\r\n\r\n    event InvestmentMade(address indexed investor, uint256 amount);\r\n    event LoanCreated(address indexed borrower, uint256 loanID, uint256 principal, uint256 endTime);\r\n    event LoanRepaid(address indexed borrower, uint256 principal);\r\n    constructor(uint256 _poolInterestRate) public {\r\n        poolinterest = _poolInterestRate; \r\n    }\r\n    modifier onlyInvestor() {\r\n    require(investorBalance[msg.sender] > 0, \"Only investors can call this function\");\r\n    _;\r\n    }\r\n     function deposit() external payable {\r\n        require(msg.value > 0, \"You must deposit some Ether\");\r\n        totalFunds += msg.value;\r\n        Investment memory newInvestment = Investment(msg.sender, msg.value, block.timestamp);\r\n        investments.push(newInvestment);\r\n        investorBalance[msg.sender] += msg.value;\r\n        emit InvestmentMade(msg.sender, msg.value);\r\n    }\r\n\r\n      function createLoan(uint256 _principal, uint256 _durationInDays) external {\r\n        require(_principal > 0, \"Loan principal must be greater than 0\");\r\n        require(investorBalance[msg.sender] >= _principal, \"Insufficient funds to take a loan\");\r\n        \r\n        uint256 interestRate = (poolinterest * _durationInDays) / 365 days;\r\n        uint256 endTime = block.timestamp + (_durationInDays * 1 days);\r\n        \r\n        Loan memory newLoan = Loan(\r\n                                    msg.sender,\r\n                                   \r\n                                    _principal,\r\n                                    _principal,\r\n                                    interestRate,\r\n                                    endTime,\r\n                                    false,\r\n                                    nextLoanID \r\n);\r\n        loans.push(newLoan);\r\n        nextLoanID++;\r\n        \r\n        investorBalance[msg.sender] -= _principal;\r\n        \r\n        emit LoanCreated(msg.sender, newLoan.loanID, _principal, endTime);\r\n    }\r\n        function repayLoan(uint256 _loanID) external payable {\r\n        for (uint256 i = 0; i < loans.length; i++) {\r\n            Loan storage loan = loans[i];\r\n            if (loan.loanID == _loanID && !loan.repaid) {\r\n                uint256 amountToRepay = loan.principal + (loan.principal * loan.interestRate / 100);\r\n                require(msg.value >= amountToRepay, \"Insufficient funds to repay the loan\");\r\n                loan.repaid = true;\r\n                totalFunds += msg.value;\r\n                investorBalance[msg.sender] += loan.principal;\r\n                emit LoanRepaid(loan.borrower, loan.principal);\r\n                return;\r\n            }\r\n        }\r\n        revert(\"Loan not found or already repaid\");\r\n    }\r\n\r\n    function getInvestmentCount() external view returns (uint256) {\r\n        return investments.length;\r\n    }\r\n    \r\n    function getLoanCount() external view returns (uint256) {\r\n        return loans.length;\r\n    }\r\n\r\n\r\n\r\n\r\n}",
  "sourcePath": "C:\\Users\\91630\\Desktop\\syntax-error1\\contracts\\contracts\\lendingpool.sol",
  "compiler": {
    "name": "solc",
    "version": "0.5.1+commit.c8a2cb62.Emscripten.clang"
  },
  "schemaVersion": "3.4.16",
  "updatedAt": "2023-10-28T07:46:06.788Z",
  "devdoc": {
    "methods": {}
  },
  "userdoc": {
    "methods": {}
  }
}