{
  "contractName": "LendingPool",
  "abi": [
    {
      "inputs": [
        {
          "internalType": "uint256",
          "name": "_poolInterestRate",
          "type": "uint256"
        }
      ],
      "stateMutability": "nonpayable",
      "type": "constructor"
    },
    {
      "anonymous": false,
      "inputs": [
        {
          "indexed": true,
          "internalType": "address",
          "name": "investor",
          "type": "address"
        },
        {
          "indexed": false,
          "internalType": "uint256",
          "name": "amount",
          "type": "uint256"
        }
      ],
      "name": "InvestmentMade",
      "type": "event"
    },
    {
      "anonymous": false,
      "inputs": [
        {
          "indexed": true,
          "internalType": "address",
          "name": "borrower",
          "type": "address"
        },
        {
          "indexed": false,
          "internalType": "uint256",
          "name": "loanID",
          "type": "uint256"
        },
        {
          "indexed": false,
          "internalType": "uint256",
          "name": "principal",
          "type": "uint256"
        },
        {
          "indexed": false,
          "internalType": "uint256",
          "name": "endTime",
          "type": "uint256"
        }
      ],
      "name": "LoanCreated",
      "type": "event"
    },
    {
      "anonymous": false,
      "inputs": [
        {
          "indexed": true,
          "internalType": "address",
          "name": "borrower",
          "type": "address"
        },
        {
          "indexed": false,
          "internalType": "uint256",
          "name": "principal",
          "type": "uint256"
        }
      ],
      "name": "LoanRepaid",
      "type": "event"
    },
    {
      "inputs": [
        {
          "internalType": "uint256",
          "name": "",
          "type": "uint256"
        }
      ],
      "name": "investments",
      "outputs": [
        {
          "internalType": "address payable",
          "name": "investor",
          "type": "address"
        },
        {
          "internalType": "uint256",
          "name": "amount",
          "type": "uint256"
        },
        {
          "internalType": "uint256",
          "name": "timeDeposited",
          "type": "uint256"
        },
        {
          "internalType": "uint256",
          "name": "amount_repaid",
          "type": "uint256"
        }
      ],
      "stateMutability": "view",
      "type": "function",
      "constant": true
    },
    {
      "inputs": [
        {
          "internalType": "address",
          "name": "",
          "type": "address"
        }
      ],
      "name": "investorBalance",
      "outputs": [
        {
          "internalType": "uint256",
          "name": "",
          "type": "uint256"
        }
      ],
      "stateMutability": "view",
      "type": "function",
      "constant": true
    },
    {
      "inputs": [
        {
          "internalType": "uint256",
          "name": "",
          "type": "uint256"
        }
      ],
      "name": "loans",
      "outputs": [
        {
          "internalType": "address",
          "name": "borrower",
          "type": "address"
        },
        {
          "internalType": "uint256",
          "name": "principal",
          "type": "uint256"
        },
        {
          "internalType": "uint256",
          "name": "interestRate",
          "type": "uint256"
        },
        {
          "internalType": "uint256",
          "name": "endTime",
          "type": "uint256"
        },
        {
          "internalType": "bool",
          "name": "repaid",
          "type": "bool"
        },
        {
          "internalType": "uint256",
          "name": "amount_paid",
          "type": "uint256"
        },
        {
          "internalType": "uint256",
          "name": "loanID",
          "type": "uint256"
        }
      ],
      "stateMutability": "view",
      "type": "function",
      "constant": true
    },
    {
      "inputs": [],
      "name": "nextLoanID",
      "outputs": [
        {
          "internalType": "uint256",
          "name": "",
          "type": "uint256"
        }
      ],
      "stateMutability": "view",
      "type": "function",
      "constant": true
    },
    {
      "inputs": [],
      "name": "poolinterest",
      "outputs": [
        {
          "internalType": "uint256",
          "name": "",
          "type": "uint256"
        }
      ],
      "stateMutability": "view",
      "type": "function",
      "constant": true
    },
    {
      "inputs": [],
      "name": "totalFunds",
      "outputs": [
        {
          "internalType": "uint256",
          "name": "",
          "type": "uint256"
        }
      ],
      "stateMutability": "view",
      "type": "function",
      "constant": true
    },
    {
      "inputs": [],
      "name": "deposit",
      "outputs": [],
      "stateMutability": "payable",
      "type": "function",
      "payable": true
    },
    {
      "inputs": [
        {
          "internalType": "uint256",
          "name": "_principal",
          "type": "uint256"
        },
        {
          "internalType": "uint256",
          "name": "_durationInDays",
          "type": "uint256"
        }
      ],
      "name": "createLoan",
      "outputs": [],
      "stateMutability": "nonpayable",
      "type": "function"
    },
    {
      "inputs": [
        {
          "internalType": "uint256",
          "name": "_loanID",
          "type": "uint256"
        }
      ],
      "name": "repayLoan",
      "outputs": [],
      "stateMutability": "payable",
      "type": "function",
      "payable": true
    },
    {
      "inputs": [],
      "name": "repayInvestors",
      "outputs": [],
      "stateMutability": "payable",
      "type": "function",
      "payable": true
    },
    {
      "inputs": [],
      "name": "getInvestmentCount",
      "outputs": [
        {
          "internalType": "uint256",
          "name": "",
          "type": "uint256"
        }
      ],
      "stateMutability": "view",
      "type": "function",
      "constant": true
    },
    {
      "inputs": [],
      "name": "getLoanCount",
      "outputs": [
        {
          "internalType": "uint256",
          "name": "",
          "type": "uint256"
        }
      ],
      "stateMutability": "view",
      "type": "function",
      "constant": true
    }
  ],
  "bytecode": "0x6080604052600160055534801561001557600080fd5b50604051610e46380380610e468339818101604052602081101561003857600080fd5b81019080805190602001909291905050508060018190555050610de6806100606000396000f3fe6080604052600436106100a75760003560e01c8063ab7b1c8911610064578063ab7b1c89146101e1578063b8d846971461020f578063d0e30db01461023a578063e0b1ad6d14610244578063e1ec3c681461026f578063fd345c8a14610318576100a7565b806323915a39146100ac57806333941681146100d7578063521968121461013c57806366ef041014610167578063968ed6001461017157806398cd90b51461019c575b600080fd5b3480156100b857600080fd5b506100c16103a8565b6040518082815260200191505060405180910390f35b3480156100e357600080fd5b50610126600480360360208110156100fa57600080fd5b81019080803573ffffffffffffffffffffffffffffffffffffffff1690602001909291905050506103ae565b6040518082815260200191505060405180910390f35b34801561014857600080fd5b506101516103c6565b6040518082815260200191505060405180910390f35b61016f6103d3565b005b34801561017d57600080fd5b5061018661052c565b6040518082815260200191505060405180910390f35b3480156101a857600080fd5b506101df600480360360408110156101bf57600080fd5b810190808035906020019092919080359060200190929190505050610532565b005b61020d600480360360208110156101f757600080fd5b81019080803590602001909291905050506107b2565b005b34801561021b57600080fd5b506102246109cf565b6040518082815260200191505060405180910390f35b6102426109dc565b005b34801561025057600080fd5b50610259610bd4565b6040518082815260200191505060405180910390f35b34801561027b57600080fd5b506102a86004803603602081101561029257600080fd5b8101908080359060200190929190505050610bda565b604051808873ffffffffffffffffffffffffffffffffffffffff1673ffffffffffffffffffffffffffffffffffffffff1681526020018781526020018681526020018581526020018415151515815260200183815260200182815260200197505050505050505060405180910390f35b34801561032457600080fd5b506103516004803603602081101561033b57600080fd5b8101908080359060200190929190505050610c56565b604051808573ffffffffffffffffffffffffffffffffffffffff1673ffffffffffffffffffffffffffffffffffffffff16815260200184815260200183815260200182815260200194505050505060405180910390f35b60055481565b60046020528060005260406000206000915090505481565b6000600380549050905090565b60008090505b600280549050811015610529576000600282815481106103f557fe5b90600052602060002090600402019050600060646001548360010154028161041957fe5b049050600081905082600101548360030154116105195780600054106105185780600080828254039250508190555080600460008560000160009054906101000a900473ffffffffffffffffffffffffffffffffffffffff1673ffffffffffffffffffffffffffffffffffffffff1673ffffffffffffffffffffffffffffffffffffffff1681526020019081526020016000206000828254039250508190555060008360000160009054906101000a900473ffffffffffffffffffffffffffffffffffffffff1673ffffffffffffffffffffffffffffffffffffffff166108fc839081150290604051600060405180830381858888f193505050509050505b5b50505080806001019150506103d9565b50565b60005481565b6000821161058b576040517f08c379a0000000000000000000000000000000000000000000000000000000008152600401808060200182810382526025815260200180610d8c6025913960400191505060405180910390fd5b8160005410156105e6576040517f08c379a0000000000000000000000000000000000000000000000000000000008152600401808060200182810382526021815260200180610d476021913960400191505060405180910390fd5b60006301e133808260015402816105f957fe5b049050600062015180830242019050610610610cb3565b6040518060e001604052803373ffffffffffffffffffffffffffffffffffffffff168152602001868152602001848152602001838152602001600015158152602001600081526020016005548152509050600381908060018154018082558091505060019003906000526020600020906007020160009091909190915060008201518160000160006101000a81548173ffffffffffffffffffffffffffffffffffffffff021916908373ffffffffffffffffffffffffffffffffffffffff16021790555060208201518160010155604082015181600201556060820151816003015560808201518160040160006101000a81548160ff02191690831515021790555060a0820151816005015560c0820151816006015550506005600081548092919060010191905055508460008082825403925050819055503373ffffffffffffffffffffffffffffffffffffffff167f1804eb76dc9809be7ef188388aa1aeb765881fd848377be891234e5c584345fe8260c00151878560405180848152602001838152602001828152602001935050505060405180910390a25050505050565b60008090505b60038054905081101561095d576000600382815481106107d457fe5b9060005260206000209060070201905082816006015414801561080657508060040160009054906101000a900460ff16155b1561094f576000606482600201548360010154028161082157fe5b04826001015401905080341015610883576040517f08c379a0000000000000000000000000000000000000000000000000000000008152600401808060200182810382526024815260200180610d686024913960400191505060405180910390fd5b34600080828254019250508190555034826005016000828254019250508190555081600101548260050154106108d15760018260040160006101000a81548160ff0219169083151502179055505b8160000160009054906101000a900473ffffffffffffffffffffffffffffffffffffffff1673ffffffffffffffffffffffffffffffffffffffff167fc200a1f31dd659e356e0f112c82558e25f49f7b0f84438691cd96f5cb355882383600101546040518082815260200191505060405180910390a25050506109cc565b5080806001019150506107b8565b506040517f08c379a00000000000000000000000000000000000000000000000000000000081526004018080602001828103825260208152602001807f4c6f616e206e6f7420666f756e64206f7220616c72656164792072657061696481525060200191505060405180910390fd5b50565b6000600280549050905090565b60003411610a52576040517f08c379a000000000000000000000000000000000000000000000000000000000815260040180806020018281038252601b8152602001807f596f75206d757374206465706f73697420736f6d65204574686572000000000081525060200191505060405180910390fd5b346000808282540192505081905550610a69610d08565b60405180608001604052803373ffffffffffffffffffffffffffffffffffffffff16815260200134815260200142815260200160008152509050600281908060018154018082558091505060019003906000526020600020906004020160009091909190915060008201518160000160006101000a81548173ffffffffffffffffffffffffffffffffffffffff021916908373ffffffffffffffffffffffffffffffffffffffff160217905550602082015181600101556040820151816002015560608201518160030155505034600460003373ffffffffffffffffffffffffffffffffffffffff1673ffffffffffffffffffffffffffffffffffffffff168152602001908152602001600020600082825401925050819055503373ffffffffffffffffffffffffffffffffffffffff167f07146ef3ff2146eaf34fa4d392d4c56663333b682654b3123bf270f9ec529f31346040518082815260200191505060405180910390a250565b60015481565b60038181548110610be757fe5b90600052602060002090600702016000915090508060000160009054906101000a900473ffffffffffffffffffffffffffffffffffffffff16908060010154908060020154908060030154908060040160009054906101000a900460ff16908060050154908060060154905087565b60028181548110610c6357fe5b90600052602060002090600402016000915090508060000160009054906101000a900473ffffffffffffffffffffffffffffffffffffffff16908060010154908060020154908060030154905084565b6040518060e00160405280600073ffffffffffffffffffffffffffffffffffffffff16815260200160008152602001600081526020016000815260200160001515815260200160008152602001600081525090565b6040518060800160405280600073ffffffffffffffffffffffffffffffffffffffff168152602001600081526020016000815260200160008152509056fe496e73756666696369656e742066756e647320746f2074616b652061206c6f616e496e73756666696369656e742066756e647320746f20726570617920746865206c6f616e4c6f616e207072696e636970616c206d7573742062652067726561746572207468616e2030a2646970667358221220b73aa52c1842e98c51a299a776f4d45e4cb43bdf183b2af55909c24e5c95823664736f6c63430006010033",
  "source": "// SPDX-License-Identifier: MIT\npragma solidity >=0.4.22 <0.9.0;\n\ncontract LendingPool{\n    uint256 public totalFunds;\n    uint256 public poolinterest;\n    struct Investment{\n        address payable investor;\n        uint256 amount;\n        uint256 timeDeposited;\n        uint256 amount_repaid;\n    }\n    struct Loan {\n    address borrower;\n    uint256 principal;\n    uint256 interestRate;\n    uint256 endTime;\n    bool repaid;\n    uint256 amount_paid;\n    uint256 loanID;\n}\n    Investment[] public investments;\n    Loan[] public loans;\n    mapping(address=>uint256) public investorBalance;\n    uint256 public nextLoanID=1;\n\n\n    event InvestmentMade(address indexed investor, uint256 amount);\n    event LoanCreated(address indexed borrower, uint256 loanID, uint256 principal, uint256 endTime);\n    event LoanRepaid(address indexed borrower, uint256 principal);\n    constructor(uint256 _poolInterestRate) public {\n        poolinterest = _poolInterestRate; \n    }\n    // modifier onlyInvestor() {\n    // require(investorBalance[msg.sender] > 0, \"Only investors can call this function\");\n    // _;\n    // }\n     function deposit() external payable {\n        require(msg.value > 0, \"You must deposit some Ether\");\n        totalFunds += msg.value;\n        Investment memory newInvestment = Investment(payable(msg.sender), msg.value, block.timestamp , 0);\n        investments.push(newInvestment);\n        investorBalance[msg.sender] += msg.value;\n        emit InvestmentMade(msg.sender, msg.value);\n    }\n\n      function createLoan(uint256 _principal, uint256 _durationInDays) external {\n        require(_principal > 0, \"Loan principal must be greater than 0\");\n        require(totalFunds >= _principal, \"Insufficient funds to take a loan\");\n        \n        uint256 interestRate = (poolinterest * _durationInDays) / 365 days;\n        uint256 endTime = block.timestamp + (_durationInDays * 1 days);\n        \n        Loan memory newLoan = Loan(\n                                    msg.sender,\n                                    _principal,\n                                    interestRate,\n                                    endTime,\n                                    false,\n                                    0,\n                                    nextLoanID \n);\n        loans.push(newLoan);\n        nextLoanID++;\n        totalFunds -= _principal;\n        \n        emit LoanCreated(msg.sender, newLoan.loanID, _principal, endTime);\n    }\n        function repayLoan(uint256 _loanID) external payable {\n        for (uint256 i = 0; i < loans.length; i++) {\n            Loan storage loan = loans[i];\n            if (loan.loanID == _loanID && !loan.repaid) {\n                uint256 amountToRepay = loan.principal + (loan.principal * loan.interestRate / 100);\n                require(msg.value >= amountToRepay, \"Insufficient funds to repay the loan\");\n                totalFunds += msg.value;\n                //get investor balance and subtract\n                loan.amount_paid += msg.value;\n                if(loan.amount_paid >= loan.principal){\n                    loan.repaid = true;\n                }\n\n                emit LoanRepaid(loan.borrower, loan.principal);\n                return;\n            }\n        }\n        revert(\"Loan not found or already repaid\");\n    }\n\n    function repayInvestors() public payable {\n        for (uint256 i = 0; i < investments.length; i++) {\n            Investment storage investment = investments[i];\n            uint256 interestEarned = (investment.amount * poolinterest) / 100;\n            uint256 totalRepayment = interestEarned;\n            \n\n            if (investment.amount_repaid <= investment.amount) {\n                if (totalFunds >= totalRepayment) {\n                    totalFunds -= totalRepayment;\n                    investorBalance[investment.investor] -= totalRepayment;\n                    bool sent = investment.investor.send(totalRepayment);\n                }\n            }\n        }\n    }\n\n\n    function getInvestmentCount() external view returns (uint256) {\n        return investments.length;\n    }\n    \n    function getLoanCount() external view returns (uint256) {\n        return loans.length;\n    }\n\n\n\n\n}",
  "sourcePath": "/Users/Pranav_1/Desktop/dev/SyntaxError'23/contracts/LendingPool.sol",
  "compiler": {
    "name": "solc",
    "version": "0.6.1+commit.e6f7d5a4.Emscripten.clang"
  },
  "schemaVersion": "3.4.16",
  "updatedAt": "2023-10-28T22:00:43.503Z",
  "networkType": "ethereum",
  "devdoc": {
    "methods": {}
  },
  "userdoc": {
    "methods": {}
  }
}