{
  "contractName": "Loan",
  "abi": [
    {
      "anonymous": false,
      "inputs": [
        {
          "indexed": false,
          "internalType": "address",
          "name": "sender",
          "type": "address"
        },
        {
          "indexed": false,
          "internalType": "uint256",
          "name": "balance",
          "type": "uint256"
        }
      ],
      "name": "Log",
      "type": "event"
    },
    {
      "anonymous": false,
      "inputs": [
        {
          "components": [
            {
              "internalType": "uint256",
              "name": "loan_id",
              "type": "uint256"
            },
            {
              "internalType": "uint256",
              "name": "amount_borrowed",
              "type": "uint256"
            },
            {
              "internalType": "int256",
              "name": "interest_rate",
              "type": "int256"
            },
            {
              "internalType": "uint256",
              "name": "time_of_repayment",
              "type": "uint256"
            },
            {
              "internalType": "address payable",
              "name": "borrower_id",
              "type": "address"
            },
            {
              "internalType": "address",
              "name": "sender_id",
              "type": "address"
            },
            {
              "internalType": "uint256",
              "name": "amount_repayed",
              "type": "uint256"
            },
            {
              "internalType": "bool",
              "name": "isRepaid",
              "type": "bool"
            }
          ],
          "indexed": false,
          "internalType": "struct Loan.Loan_info",
          "name": "loan",
          "type": "tuple"
        }
      ],
      "name": "LogMapping",
      "type": "event"
    },
    {
      "anonymous": false,
      "inputs": [
        {
          "indexed": false,
          "internalType": "address",
          "name": "sender",
          "type": "address"
        }
      ],
      "name": "LogSender",
      "type": "event"
    },
    {
      "anonymous": false,
      "inputs": [
        {
          "indexed": false,
          "internalType": "uint256",
          "name": "value",
          "type": "uint256"
        }
      ],
      "name": "LogValue",
      "type": "event"
    },
    {
      "inputs": [
        {
          "internalType": "uint256",
          "name": "",
          "type": "uint256"
        }
      ],
      "name": "loanCollaterals",
      "outputs": [
        {
          "internalType": "address",
          "name": "nftContract",
          "type": "address"
        },
        {
          "internalType": "uint256",
          "name": "tokenId",
          "type": "uint256"
        }
      ],
      "stateMutability": "view",
      "type": "function",
      "constant": true
    },
    {
      "inputs": [
        {
          "internalType": "address",
          "name": "",
          "type": "address"
        },
        {
          "internalType": "uint256",
          "name": "",
          "type": "uint256"
        }
      ],
      "name": "loansByBorrower",
      "outputs": [
        {
          "internalType": "uint256",
          "name": "loan_id",
          "type": "uint256"
        },
        {
          "internalType": "uint256",
          "name": "amount_borrowed",
          "type": "uint256"
        },
        {
          "internalType": "int256",
          "name": "interest_rate",
          "type": "int256"
        },
        {
          "internalType": "uint256",
          "name": "time_of_repayment",
          "type": "uint256"
        },
        {
          "internalType": "address payable",
          "name": "borrower_id",
          "type": "address"
        },
        {
          "internalType": "address",
          "name": "sender_id",
          "type": "address"
        },
        {
          "internalType": "uint256",
          "name": "amount_repayed",
          "type": "uint256"
        },
        {
          "internalType": "bool",
          "name": "isRepaid",
          "type": "bool"
        }
      ],
      "stateMutability": "view",
      "type": "function",
      "constant": true
    },
    {
      "inputs": [
        {
          "internalType": "address",
          "name": "",
          "type": "address"
        },
        {
          "internalType": "uint256",
          "name": "",
          "type": "uint256"
        }
      ],
      "name": "loansByReciever",
      "outputs": [
        {
          "internalType": "uint256",
          "name": "loan_id",
          "type": "uint256"
        },
        {
          "internalType": "uint256",
          "name": "amount_borrowed",
          "type": "uint256"
        },
        {
          "internalType": "int256",
          "name": "interest_rate",
          "type": "int256"
        },
        {
          "internalType": "uint256",
          "name": "time_of_repayment",
          "type": "uint256"
        },
        {
          "internalType": "address payable",
          "name": "borrower_id",
          "type": "address"
        },
        {
          "internalType": "address",
          "name": "sender_id",
          "type": "address"
        },
        {
          "internalType": "uint256",
          "name": "amount_repayed",
          "type": "uint256"
        },
        {
          "internalType": "bool",
          "name": "isRepaid",
          "type": "bool"
        }
      ],
      "stateMutability": "view",
      "type": "function",
      "constant": true
    },
    {
      "inputs": [
        {
          "internalType": "uint256",
          "name": "",
          "type": "uint256"
        }
      ],
      "name": "loans_mapping",
      "outputs": [
        {
          "internalType": "uint256",
          "name": "loan_id",
          "type": "uint256"
        },
        {
          "internalType": "uint256",
          "name": "amount_borrowed",
          "type": "uint256"
        },
        {
          "internalType": "int256",
          "name": "interest_rate",
          "type": "int256"
        },
        {
          "internalType": "uint256",
          "name": "time_of_repayment",
          "type": "uint256"
        },
        {
          "internalType": "address payable",
          "name": "borrower_id",
          "type": "address"
        },
        {
          "internalType": "address",
          "name": "sender_id",
          "type": "address"
        },
        {
          "internalType": "uint256",
          "name": "amount_repayed",
          "type": "uint256"
        },
        {
          "internalType": "bool",
          "name": "isRepaid",
          "type": "bool"
        }
      ],
      "stateMutability": "view",
      "type": "function",
      "constant": true
    },
    {
      "inputs": [
        {
          "internalType": "uint256",
          "name": "",
          "type": "uint256"
        }
      ],
      "name": "provided_loans",
      "outputs": [
        {
          "internalType": "uint256",
          "name": "loan_id",
          "type": "uint256"
        },
        {
          "internalType": "uint256",
          "name": "loan_amount",
          "type": "uint256"
        },
        {
          "internalType": "address",
          "name": "loan_provider",
          "type": "address"
        }
      ],
      "stateMutability": "view",
      "type": "function",
      "constant": true
    },
    {
      "inputs": [
        {
          "internalType": "address payable",
          "name": "from",
          "type": "address"
        },
        {
          "internalType": "address payable",
          "name": "_to",
          "type": "address"
        }
      ],
      "name": "sendPaisa",
      "outputs": [],
      "stateMutability": "payable",
      "type": "function",
      "payable": true
    },
    {
      "inputs": [
        {
          "internalType": "uint256",
          "name": "loan_amount",
          "type": "uint256"
        },
        {
          "internalType": "address",
          "name": "loan_provider",
          "type": "address"
        }
      ],
      "name": "provideLoan",
      "outputs": [],
      "stateMutability": "payable",
      "type": "function",
      "payable": true
    },
    {
      "inputs": [
        {
          "internalType": "uint256",
          "name": "_amount_borrowed",
          "type": "uint256"
        },
        {
          "internalType": "int256",
          "name": "_interest_rate",
          "type": "int256"
        },
        {
          "internalType": "uint256",
          "name": "_time_of_repayment",
          "type": "uint256"
        },
        {
          "internalType": "address payable",
          "name": "_borrower_id",
          "type": "address"
        },
        {
          "internalType": "address",
          "name": "_sender_id",
          "type": "address"
        }
      ],
      "name": "getLoan",
      "outputs": [],
      "stateMutability": "nonpayable",
      "type": "function"
    },
    {
      "inputs": [
        {
          "internalType": "uint256",
          "name": "loan_id",
          "type": "uint256"
        }
      ],
      "name": "cancelLoan",
      "outputs": [],
      "stateMutability": "nonpayable",
      "type": "function"
    },
    {
      "inputs": [
        {
          "internalType": "uint256",
          "name": "loanId",
          "type": "uint256"
        }
      ],
      "name": "automaticMonthlyPayment",
      "outputs": [],
      "stateMutability": "nonpayable",
      "type": "function"
    },
    {
      "inputs": [
        {
          "internalType": "uint256",
          "name": "loanId",
          "type": "uint256"
        },
        {
          "internalType": "address",
          "name": "nftContract",
          "type": "address"
        },
        {
          "internalType": "uint256",
          "name": "tokenId",
          "type": "uint256"
        }
      ],
      "name": "depositCollateral",
      "outputs": [],
      "stateMutability": "nonpayable",
      "type": "function"
    },
    {
      "inputs": [
        {
          "internalType": "address",
          "name": "target_address",
          "type": "address"
        }
      ],
      "name": "getAccountBalance",
      "outputs": [
        {
          "internalType": "uint256",
          "name": "",
          "type": "uint256"
        }
      ],
      "stateMutability": "nonpayable",
      "type": "function"
    },
    {
      "inputs": [
        {
          "internalType": "uint256",
          "name": "loan_id",
          "type": "uint256"
        }
      ],
      "name": "getLoanDetails",
      "outputs": [],
      "stateMutability": "nonpayable",
      "type": "function"
    }
  ],
  "bytecode": "0x608060405234801561001057600080fd5b50611c1b806100206000396000f3fe6080604052600436106100c25760003560e01c80638118785c1161007f578063e0e539a911610059578063e0e539a9146102a0578063e98210b1146102bc578063ebea51b414610300578063f116204b14610329576100c2565b80638118785c146101fb57806393423e9c1461023a578063bdbfa3de14610277576100c2565b806301477e78146100c75780631a69287a1461010b5780633dec37fc146101275780634b7f1e5a1461015057806350ed73b71461019457806366877b8d146101d2575b600080fd5b3480156100d357600080fd5b506100ee60048036036100e99190810190611150565b610352565b604051610102989796959493929190611970565b60405180910390f35b610125600480360361012091908101906111b5565b610401565b005b34801561013357600080fd5b5061014e6004803603610149919081019061118c565b61055c565b005b34801561015c57600080fd5b5061017760048036036101729190810190611150565b61070c565b60405161018b989796959493929190611970565b60405180910390f35b3480156101a057600080fd5b506101bb60048036036101b6919081019061118c565b6107bb565b6040516101c9929190611799565b60405180910390f35b3480156101de57600080fd5b506101f960048036036101f4919081019061118c565b6107ff565b005b34801561020757600080fd5b50610222600480360361021d919081019061118c565b61084b565b60405161023193929190611939565b60405180910390f35b34801561024657600080fd5b50610261600480360361025c91908101906110eb565b610895565b60405161026e919061191e565b60405180910390f35b34801561028357600080fd5b5061029e6004803603610299919081019061118c565b610904565b005b6102ba60048036036102b59190810190611114565b6109a7565b005b3480156102c857600080fd5b506102e360048036036102de919081019061118c565b610acf565b6040516102f7989796959493929190611970565b60405180910390f35b34801561030c57600080fd5b50610327600480360361032291908101906111f1565b610b64565b005b34801561033557600080fd5b50610350600480360361034b9190810190611240565b610da8565b005b6006602052816000526040600020818154811061036b57fe5b9060005260206000209060080201600091509150508060000154908060010154908060020154908060030154908060040160009054906101000a900473ffffffffffffffffffffffffffffffffffffffff16908060050160009054906101000a900473ffffffffffffffffffffffffffffffffffffffff16908060060154908060070160009054906101000a900460ff16905088565b610409610fed565b604051806060016040528060015481526020018481526020018373ffffffffffffffffffffffffffffffffffffffff16815250905080600360006001548152602001908152602001600020600082015181600001556020820151816001015560408201518160020160006101000a81548173ffffffffffffffffffffffffffffffffffffffff021916908373ffffffffffffffffffffffffffffffffffffffff160217905550905050600160008154809291906001019190505550348273ffffffffffffffffffffffffffffffffffffffff16311161051d576040517f08c379a0000000000000000000000000000000000000000000000000000000008152600401610514906117e2565b60405180910390fd5b60003073ffffffffffffffffffffffffffffffffffffffff166108fc349081150290604051600060405180830381858888f19350505050905050505050565b6000600260008381526020019081526020016000209050600061057e83610f88565b90508160070160009054906101000a900460ff16156105d2576040517f08c379a00000000000000000000000000000000000000000000000000000000081526004016105c990611822565b60405180910390fd5b80471015610615576040517f08c379a000000000000000000000000000000000000000000000000000000000815260040161060c906118e2565b60405180910390fd5b60008260040160009054906101000a900473ffffffffffffffffffffffffffffffffffffffff1673ffffffffffffffffffffffffffffffffffffffff166108fc839081150290604051600060405180830381858888f193505050509050806106b2576040517f08c379a00000000000000000000000000000000000000000000000000000000081526004016106a990611862565b60405180910390fd5b81836006016000828254019250508190555062278d00836003016000828254019250508190555082600101548360060154106107065760018360070160006101000a81548160ff0219169083151502179055505b50505050565b6005602052816000526040600020818154811061072557fe5b9060005260206000209060080201600091509150508060000154908060010154908060020154908060030154908060040160009054906101000a900473ffffffffffffffffffffffffffffffffffffffff16908060050160009054906101000a900473ffffffffffffffffffffffffffffffffffffffff16908060060154908060070160009054906101000a900460ff16905088565b60046020528060005260406000206000915090508060000160009054906101000a900473ffffffffffffffffffffffffffffffffffffffff16908060010154905082565b7fc5b23958e40ddb85ba95b2281768301bb821ca59e63ee50e1abd4739d3357965600260008381526020019081526020016000206040516108409190611902565b60405180910390a150565b60036020528060005260406000206000915090508060000154908060010154908060020160009054906101000a900473ffffffffffffffffffffffffffffffffffffffff16905083565b60007ffcf771399d75a67a6d0e730ae98d34c40b6bfe6ebf8053b98ddf4da8c27062508273ffffffffffffffffffffffffffffffffffffffff16316040516108dd919061191e565b60405180910390a18173ffffffffffffffffffffffffffffffffffffffff16319050919050565b600260008281526020019081526020016000206000808201600090556001820160009055600282016000905560038201600090556004820160006101000a81549073ffffffffffffffffffffffffffffffffffffffff02191690556005820160006101000a81549073ffffffffffffffffffffffffffffffffffffffff021916905560068201600090556007820160006101000a81549060ff0219169055505050565b348273ffffffffffffffffffffffffffffffffffffffff16311015610a01576040517f08c379a00000000000000000000000000000000000000000000000000000000081526004016109f8906117c2565b60405180910390fd5b60008173ffffffffffffffffffffffffffffffffffffffff166108fc349081150290604051600060405180830381858888f19350505050905080610a7a576040517f08c379a0000000000000000000000000000000000000000000000000000000008152600401610a7190611882565b60405180910390fd5b7ff950957d2407bed19dc99b718b46b4ce6090c05589006dfb86fd22c34865b23e828373ffffffffffffffffffffffffffffffffffffffff1631604051610ac2929190611770565b60405180910390a1505050565b60026020528060005260406000206000915090508060000154908060010154908060020154908060030154908060040160009054906101000a900473ffffffffffffffffffffffffffffffffffffffff16908060050160009054906101000a900473ffffffffffffffffffffffffffffffffffffffff16908060060154908060070160009054906101000a900460ff16905088565b6002600084815260200190815260200160002060040160009054906101000a900473ffffffffffffffffffffffffffffffffffffffff1673ffffffffffffffffffffffffffffffffffffffff163373ffffffffffffffffffffffffffffffffffffffff1614610c08576040517f08c379a0000000000000000000000000000000000000000000000000000000008152600401610bff90611842565b60405180910390fd5b6002600084815260200190815260200160002060070160009054906101000a900460ff1615610c6c576040517f08c379a0000000000000000000000000000000000000000000000000000000008152600401610c63906118a2565b60405180910390fd5b600073ffffffffffffffffffffffffffffffffffffffff166004600085815260200190815260200160002060000160009054906101000a900473ffffffffffffffffffffffffffffffffffffffff1673ffffffffffffffffffffffffffffffffffffffff1614610d11576040517f08c379a0000000000000000000000000000000000000000000000000000000008152600401610d0890611802565b60405180910390fd5b60405180604001604052808373ffffffffffffffffffffffffffffffffffffffff168152602001828152506004600085815260200190815260200160002060008201518160000160006101000a81548173ffffffffffffffffffffffffffffffffffffffff021916908373ffffffffffffffffffffffffffffffffffffffff16021790555060208201518160010155905050505050565b848173ffffffffffffffffffffffffffffffffffffffff163111610e01576040517f08c379a0000000000000000000000000000000000000000000000000000000008152600401610df8906118c2565b60405180910390fd5b610e09611024565b60405180610100016040528060005481526020018781526020018681526020018581526020018473ffffffffffffffffffffffffffffffffffffffff1681526020018373ffffffffffffffffffffffffffffffffffffffff168152602001600081526020016000151581525090508060026000805481526020019081526020016000206000820151816000015560208201518160010155604082015181600201556060820151816003015560808201518160040160006101000a81548173ffffffffffffffffffffffffffffffffffffffff021916908373ffffffffffffffffffffffffffffffffffffffff16021790555060a08201518160050160006101000a81548173ffffffffffffffffffffffffffffffffffffffff021916908373ffffffffffffffffffffffffffffffffffffffff16021790555060c0820151816006015560e08201518160070160006101000a81548160ff0219169083151502179055509050506000808154809291906001019190505550505050505050565b600080600260008481526020019081526020016000209050600081600601546064836002015460640184600101540281610fbe57fe5b04039050600062278d008360030154420381610fd657fe5b049050808281610fe257fe5b049350505050919050565b60405180606001604052806000815260200160008152602001600073ffffffffffffffffffffffffffffffffffffffff1681525090565b60405180610100016040528060008152602001600081526020016000815260200160008152602001600073ffffffffffffffffffffffffffffffffffffffff168152602001600073ffffffffffffffffffffffffffffffffffffffff168152602001600081526020016000151581525090565b6000813590506110a681611b89565b92915050565b6000813590506110bb81611ba0565b92915050565b6000813590506110d081611bb7565b92915050565b6000813590506110e581611bce565b92915050565b6000602082840312156110fd57600080fd5b600061110b84828501611097565b91505092915050565b6000806040838503121561112757600080fd5b6000611135858286016110ac565b9250506020611146858286016110ac565b9150509250929050565b6000806040838503121561116357600080fd5b600061117185828601611097565b9250506020611182858286016110d6565b9150509250929050565b60006020828403121561119e57600080fd5b60006111ac848285016110d6565b91505092915050565b600080604083850312156111c857600080fd5b60006111d6858286016110d6565b92505060206111e785828601611097565b9150509250929050565b60008060006060848603121561120657600080fd5b6000611214868287016110d6565b935050602061122586828701611097565b9250506040611236868287016110d6565b9150509250925092565b600080600080600060a0868803121561125857600080fd5b6000611266888289016110d6565b9550506020611277888289016110c1565b9450506040611288888289016110d6565b9350506060611299888289016110ac565b92505060806112aa88828901611097565b9150509295509295909350565b6112c081611ac4565b82525050565b6112cf81611a72565b82525050565b6112de81611a72565b82525050565b6112ed81611a60565b82525050565b6112fc81611a60565b82525050565b61130b81611a84565b82525050565b61131a81611a84565b82525050565b61132981611a90565b82525050565b61133881611a90565b82525050565b600061134b6012836119ee565b91507f496e73756666696369656e742046756e647300000000000000000000000000006000830152602082019050919050565b600061138b601a836119ee565b91507f552063616e27742070726f766964652074686174206c6f616e210000000000006000830152602082019050919050565b60006113cb602d836119ee565b91507f436f6c6c61746572616c20697320616c7265616479206465706f73697465642060008301527f666f722074686973206c6f616e000000000000000000000000000000000000006020830152604082019050919050565b60006114316016836119ee565b91507f4c6f616e20697320616c726561647920726570616964000000000000000000006000830152602082019050919050565b60006114716028836119ee565b91507f4f6e6c792074686520626f72726f7765722063616e206465706f73697420636f60008301527f6c6c61746572616c0000000000000000000000000000000000000000000000006020830152604082019050919050565b60006114d76016836119ee565b91507f4661696c656420746f2073656e64207061796d656e74000000000000000000006000830152602082019050919050565b60006115176013836119ee565b91507f5472616e73616374696f6e204661696c656421000000000000000000000000006000830152602082019050919050565b60006115576030836119ee565b91507f436f6c6c61746572616c2063616e6e6f74206265206465706f7369746564206660008301527f6f72206120726570616964206c6f616e000000000000000000000000000000006020830152604082019050919050565b60006115bd6022836119ee565b91507f596f7520646f6e277420686176652066756e647320746f2067697665206c6f6160008301527f6e730000000000000000000000000000000000000000000000000000000000006020830152604082019050919050565b6000611623601d836119ee565b91507f496e73756666696369656e7420636f6e74726163742062616c616e63650000006000830152602082019050919050565b6101008201600080830154905061166c81611b62565b6116796000860182611752565b506001830154905061168a81611b62565b6116976020860182611752565b50600283015490506116a881611b48565b6116b56040860182611320565b50600383015490506116c681611b62565b6116d36060860182611752565b50600483015490506116e481611b14565b6116f160808601826112c6565b506005830154905061170281611afa565b61170f60a08601826112e4565b506006830154905061172081611b62565b61172d60c0860182611752565b506007830154905061173e81611b2e565b61174b60e0860182611302565b5050505050565b61175b81611aba565b82525050565b61176a81611aba565b82525050565b600060408201905061178560008301856112b7565b6117926020830184611761565b9392505050565b60006040820190506117ae60008301856112f3565b6117bb6020830184611761565b9392505050565b600060208201905081810360008301526117db8161133e565b9050919050565b600060208201905081810360008301526117fb8161137e565b9050919050565b6000602082019050818103600083015261181b816113be565b9050919050565b6000602082019050818103600083015261183b81611424565b9050919050565b6000602082019050818103600083015261185b81611464565b9050919050565b6000602082019050818103600083015261187b816114ca565b9050919050565b6000602082019050818103600083015261189b8161150a565b9050919050565b600060208201905081810360008301526118bb8161154a565b9050919050565b600060208201905081810360008301526118db816115b0565b9050919050565b600060208201905081810360008301526118fb81611616565b9050919050565b6000610100820190506119186000830184611656565b92915050565b60006020820190506119336000830184611761565b92915050565b600060608201905061194e6000830186611761565b61195b6020830185611761565b61196860408301846112f3565b949350505050565b600061010082019050611986600083018b611761565b611993602083018a611761565b6119a0604083018961132f565b6119ad6060830188611761565b6119ba60808301876112d5565b6119c760a08301866112f3565b6119d460c0830185611761565b6119e160e0830184611311565b9998505050505050505050565b600082825260208201905092915050565b600073ffffffffffffffffffffffffffffffffffffffff82169050919050565b600073ffffffffffffffffffffffffffffffffffffffff82169050919050565b600060ff82169050919050565b6000819050919050565b6000819050919050565b6000611a6b82611a9a565b9050919050565b6000611a7d82611a9a565b9050919050565b60008115159050919050565b6000819050919050565b600073ffffffffffffffffffffffffffffffffffffffff82169050919050565b6000819050919050565b6000611acf82611ad6565b9050919050565b6000611ae182611ae8565b9050919050565b6000611af382611a9a565b9050919050565b6000611b0d611b0883611b7c565b6119ff565b9050919050565b6000611b27611b2283611b7c565b611a1f565b9050919050565b6000611b41611b3c83611b7c565b611a3f565b9050919050565b6000611b5b611b5683611b7c565b611a4c565b9050919050565b6000611b75611b7083611b7c565b611a56565b9050919050565b60008160001c9050919050565b611b9281611a60565b8114611b9d57600080fd5b50565b611ba981611a72565b8114611bb457600080fd5b50565b611bc081611a90565b8114611bcb57600080fd5b50565b611bd781611aba565b8114611be257600080fd5b5056fea26469706673582212208177e91ecb9a4ce41d305db37333c9ebb448f041b66ec357a73d060bae4fb20464736f6c63430006010033",
  "source": "// SPDX-License-Identifier: MIT\npragma experimental ABIEncoderV2;\npragma solidity >=0.4.22 <0.9.0;\n\n\n\ncontract Loan {\n    uint256 private total_loans;\n    uint256 private total_provided_loans;\n    \n\n    struct Loan_info{\n        uint256 loan_id;\n        uint256 amount_borrowed;\n        int interest_rate;\n        uint256 time_of_repayment;\n        address payable borrower_id;\n        address sender_id;\n        uint256 amount_repayed;\n        bool isRepaid;\n        // Collateral collateral;\n    }\n\n    struct Loan_given{\n        uint256 loan_id;\n        uint256 loan_amount;\n        address loan_provider;\n    }\n\n\n\n\n\n    struct Collateral {\n        address nftContract;\n        uint256 tokenId;\n    }\n    \n    mapping (uint256 => Loan_info) public loans_mapping;\n    mapping (uint256 => Loan_given) public provided_loans;\n    mapping(uint256 => Collateral) public loanCollaterals;\n    mapping (address => Loan_info []) public loansByBorrower;\n    mapping (address => Loan_info []) public loansByReciever;\n\n    function sendPaisa(address payable from , address payable _to) public payable {\n    require(from.balance >= msg.value, \"Insufficient Funds\"); // Check the contract's balance\n    bool sent = _to.send(msg.value);\n    require(sent , \"Transaction Failed!\");\n    emit Log(_to, _to.balance);\n}\n\n    uint256 constant private MONTH_IN_SECONDS = 30 days; \n\n    function provideLoan(uint256 loan_amount , address loan_provider) public payable{\n        Loan_given memory loan_given = Loan_given(total_provided_loans , loan_amount , loan_provider);\n        provided_loans[total_provided_loans] = loan_given;\n        total_provided_loans++;\n        require(loan_provider.balance > msg.value , \"U can't provide that loan!\");\n        bool sent = payable(address(this)).send(msg.value);\n    }\n\n    function getLoan(uint256 _amount_borrowed,\n        int _interest_rate,\n        uint256 _time_of_repayment,\n        address payable _borrower_id,\n        address _sender_id\n        // Collateral memory _collateral\n        ) public {\n        require(_sender_id.balance > _amount_borrowed , \"You don't have funds to give loans\");\n        Loan_info memory loan = Loan_info(total_loans,_amount_borrowed , _interest_rate ,_time_of_repayment, _borrower_id , _sender_id , 0,false);\n        loans_mapping[total_loans] = loan;\n        total_loans++;\n    }\n\n    function calculateMonthlyPayment(uint256 loanId) internal view returns (uint256) {\n        Loan_info storage loan = loans_mapping[loanId];\n        uint256 totalLoanAmount = (loan.amount_borrowed * (100 + uint256(loan.interest_rate)) / 100 - loan.amount_repayed);\n        uint256 remainingMonths = (block.timestamp - loan.time_of_repayment) / MONTH_IN_SECONDS;\n        return totalLoanAmount / remainingMonths;\n    }\n\n    function cancelLoan(uint256 loan_id) public {\n        delete loans_mapping[loan_id];\n    }\n\n    function automaticMonthlyPayment(uint256 loanId) public {\n        Loan_info storage loan = loans_mapping[loanId];\n        uint256 amount_to_be_paid = calculateMonthlyPayment(loanId);\n        require(!loan.isRepaid, \"Loan is already repaid\");\n        // require(block.timestamp <= loan.time_of_repayment, \"Payment can only be made before the due date\");\n        require(address(this).balance >= amount_to_be_paid, \"Insufficient contract balance\");\n\n        bool sent = loan.borrower_id.send(amount_to_be_paid);\n        require(sent, \"Failed to send payment\");\n\n        // If payment goes thru->\n        loan.amount_repayed += amount_to_be_paid;\n        loan.time_of_repayment += MONTH_IN_SECONDS;\n\n        if (loan.amount_repayed >= loan.amount_borrowed) {\n            loan.isRepaid = true;\n        }\n    }\n\n    function depositCollateral(uint256 loanId, address nftContract, uint256 tokenId) public {\n        require(msg.sender == loans_mapping[loanId].borrower_id, \"Only the borrower can deposit collateral\");\n        require(!loans_mapping[loanId].isRepaid, \"Collateral cannot be deposited for a repaid loan\");\n        require(loanCollaterals[loanId].nftContract == address(0), \"Collateral is already deposited for this loan\");\n        // Transfer the NFT to this contract\n        // IERC721Enumerable(nftContract).transferFrom(msg.sender, address(this), tokenId);\n        loanCollaterals[loanId] = Collateral(nftContract, tokenId);\n        // emit CollateralDeposited(loanId, nftContract, tokenId);\n    }\n\n\n    function getAccountBalance(address target_address) public  returns (uint256) {\n        // emit LogSender(sender_id);\n        emit LogValue(target_address.balance);\n        return target_address.balance;\n    }\n\n    function getLoanDetails(uint256 loan_id) public  {\n        emit LogMapping(loans_mapping[loan_id]);\n    }\n\n\n    event Log(address sender , uint256 balance);\n\n    event LogSender(address sender);\n\n    event LogValue(uint256 value);\n\n    event LogMapping(Loan_info loan);\n}\n\n",
  "sourcePath": "/Users/Pranav_1/Desktop/dev/SyntaxError'23/contracts/loan.sol",
  "compiler": {
    "name": "solc",
    "version": "0.6.1+commit.e6f7d5a4.Emscripten.clang"
  },
  "schemaVersion": "3.4.16",
  "updatedAt": "2023-10-28T16:37:29.931Z",
  "networkType": "ethereum",
  "devdoc": {
    "methods": {}
  },
  "userdoc": {
    "methods": {}
  }
}