{
  "contractName": "Loan",
  "abi": [
    {
      "anonymous": false,
      "inputs": [
        {
          "indexed": false,
          "internalType": "address",
          "name": "sender",
          "type": "address"
        },
        {
          "indexed": false,
          "internalType": "uint256",
          "name": "balance",
          "type": "uint256"
        }
      ],
      "name": "Log",
      "type": "event"
    },
    {
      "anonymous": false,
      "inputs": [
        {
          "components": [
            {
              "internalType": "uint256",
              "name": "loan_id",
              "type": "uint256"
            },
            {
              "internalType": "uint256",
              "name": "amount_borrowed",
              "type": "uint256"
            },
            {
              "internalType": "int256",
              "name": "interest_rate",
              "type": "int256"
            },
            {
              "internalType": "uint256",
              "name": "time_of_repayment",
              "type": "uint256"
            },
            {
              "internalType": "address payable",
              "name": "borrower_id",
              "type": "address"
            },
            {
              "internalType": "address",
              "name": "sender_id",
              "type": "address"
            },
            {
              "internalType": "uint256",
              "name": "amount_repayed",
              "type": "uint256"
            },
            {
              "internalType": "bool",
              "name": "isRepaid",
              "type": "bool"
            }
          ],
          "indexed": false,
          "internalType": "struct Loan.Loan_info",
          "name": "loan",
          "type": "tuple"
        }
      ],
      "name": "LogMapping",
      "type": "event"
    },
    {
      "anonymous": false,
      "inputs": [
        {
          "components": [
            {
              "internalType": "uint256",
              "name": "loan_id",
              "type": "uint256"
            },
            {
              "internalType": "uint256",
              "name": "loan_amount",
              "type": "uint256"
            },
            {
              "internalType": "address",
              "name": "loan_provider",
              "type": "address"
            }
          ],
          "indexed": false,
          "internalType": "struct Loan.Loan_given",
          "name": "loan",
          "type": "tuple"
        }
      ],
      "name": "LogMappingProvided",
      "type": "event"
    },
    {
      "anonymous": false,
      "inputs": [
        {
          "indexed": false,
          "internalType": "address",
          "name": "sender",
          "type": "address"
        }
      ],
      "name": "LogSender",
      "type": "event"
    },
    {
      "anonymous": false,
      "inputs": [
        {
          "indexed": false,
          "internalType": "uint256",
          "name": "value",
          "type": "uint256"
        }
      ],
      "name": "LogValue",
      "type": "event"
    },
    {
      "inputs": [
        {
          "internalType": "uint256",
          "name": "",
          "type": "uint256"
        }
      ],
      "name": "loanCollaterals",
      "outputs": [
        {
          "internalType": "address",
          "name": "nftContract",
          "type": "address"
        },
        {
          "internalType": "uint256",
          "name": "tokenId",
          "type": "uint256"
        }
      ],
      "stateMutability": "view",
      "type": "function",
      "constant": true
    },
    {
      "inputs": [
        {
          "internalType": "address",
          "name": "",
          "type": "address"
        },
        {
          "internalType": "uint256",
          "name": "",
          "type": "uint256"
        }
      ],
      "name": "loansByBorrower",
      "outputs": [
        {
          "internalType": "uint256",
          "name": "loan_id",
          "type": "uint256"
        },
        {
          "internalType": "uint256",
          "name": "amount_borrowed",
          "type": "uint256"
        },
        {
          "internalType": "int256",
          "name": "interest_rate",
          "type": "int256"
        },
        {
          "internalType": "uint256",
          "name": "time_of_repayment",
          "type": "uint256"
        },
        {
          "internalType": "address payable",
          "name": "borrower_id",
          "type": "address"
        },
        {
          "internalType": "address",
          "name": "sender_id",
          "type": "address"
        },
        {
          "internalType": "uint256",
          "name": "amount_repayed",
          "type": "uint256"
        },
        {
          "internalType": "bool",
          "name": "isRepaid",
          "type": "bool"
        }
      ],
      "stateMutability": "view",
      "type": "function",
      "constant": true
    },
    {
      "inputs": [
        {
          "internalType": "address",
          "name": "",
          "type": "address"
        },
        {
          "internalType": "uint256",
          "name": "",
          "type": "uint256"
        }
      ],
      "name": "loansByReciever",
      "outputs": [
        {
          "internalType": "uint256",
          "name": "loan_id",
          "type": "uint256"
        },
        {
          "internalType": "uint256",
          "name": "amount_borrowed",
          "type": "uint256"
        },
        {
          "internalType": "int256",
          "name": "interest_rate",
          "type": "int256"
        },
        {
          "internalType": "uint256",
          "name": "time_of_repayment",
          "type": "uint256"
        },
        {
          "internalType": "address payable",
          "name": "borrower_id",
          "type": "address"
        },
        {
          "internalType": "address",
          "name": "sender_id",
          "type": "address"
        },
        {
          "internalType": "uint256",
          "name": "amount_repayed",
          "type": "uint256"
        },
        {
          "internalType": "bool",
          "name": "isRepaid",
          "type": "bool"
        }
      ],
      "stateMutability": "view",
      "type": "function",
      "constant": true
    },
    {
      "inputs": [
        {
          "internalType": "uint256",
          "name": "",
          "type": "uint256"
        }
      ],
      "name": "loansProvidedByTheirValue",
      "outputs": [
        {
          "internalType": "uint256",
          "name": "",
          "type": "uint256"
        }
      ],
      "stateMutability": "view",
      "type": "function",
      "constant": true
    },
    {
      "inputs": [
        {
          "internalType": "uint256",
          "name": "",
          "type": "uint256"
        }
      ],
      "name": "loans_mapping",
      "outputs": [
        {
          "internalType": "uint256",
          "name": "loan_id",
          "type": "uint256"
        },
        {
          "internalType": "uint256",
          "name": "amount_borrowed",
          "type": "uint256"
        },
        {
          "internalType": "int256",
          "name": "interest_rate",
          "type": "int256"
        },
        {
          "internalType": "uint256",
          "name": "time_of_repayment",
          "type": "uint256"
        },
        {
          "internalType": "address payable",
          "name": "borrower_id",
          "type": "address"
        },
        {
          "internalType": "address",
          "name": "sender_id",
          "type": "address"
        },
        {
          "internalType": "uint256",
          "name": "amount_repayed",
          "type": "uint256"
        },
        {
          "internalType": "bool",
          "name": "isRepaid",
          "type": "bool"
        }
      ],
      "stateMutability": "view",
      "type": "function",
      "constant": true
    },
    {
      "inputs": [
        {
          "internalType": "uint256",
          "name": "",
          "type": "uint256"
        }
      ],
      "name": "provided_loans",
      "outputs": [
        {
          "internalType": "uint256",
          "name": "loan_id",
          "type": "uint256"
        },
        {
          "internalType": "uint256",
          "name": "loan_amount",
          "type": "uint256"
        },
        {
          "internalType": "address",
          "name": "loan_provider",
          "type": "address"
        }
      ],
      "stateMutability": "view",
      "type": "function",
      "constant": true
    },
    {
      "inputs": [
        {
          "internalType": "address payable",
          "name": "from",
          "type": "address"
        },
        {
          "internalType": "address payable",
          "name": "_to",
          "type": "address"
        }
      ],
      "name": "sendPaisa",
      "outputs": [],
      "stateMutability": "payable",
      "type": "function",
      "payable": true
    },
    {
      "inputs": [
        {
          "internalType": "uint256",
          "name": "loan_amount",
          "type": "uint256"
        },
        {
          "internalType": "address",
          "name": "loan_provider",
          "type": "address"
        }
      ],
      "name": "provideLoan",
      "outputs": [],
      "stateMutability": "payable",
      "type": "function",
      "payable": true
    },
    {
      "inputs": [
        {
          "internalType": "uint256",
          "name": "loan_id",
          "type": "uint256"
        }
      ],
      "name": "checkProvidedLoans",
      "outputs": [
        {
          "components": [
            {
              "internalType": "uint256",
              "name": "loan_id",
              "type": "uint256"
            },
            {
              "internalType": "uint256",
              "name": "loan_amount",
              "type": "uint256"
            },
            {
              "internalType": "address",
              "name": "loan_provider",
              "type": "address"
            }
          ],
          "internalType": "struct Loan.Loan_given",
          "name": "",
          "type": "tuple"
        }
      ],
      "stateMutability": "view",
      "type": "function",
      "constant": true
    },
    {
      "inputs": [
        {
          "internalType": "uint256",
          "name": "_amount_borrowed",
          "type": "uint256"
        },
        {
          "internalType": "int256",
          "name": "_interest_rate",
          "type": "int256"
        },
        {
          "internalType": "uint256",
          "name": "_time_of_repayment",
          "type": "uint256"
        },
        {
          "internalType": "address payable",
          "name": "_borrower_id",
          "type": "address"
        },
        {
          "internalType": "address",
          "name": "_sender_id",
          "type": "address"
        }
      ],
      "name": "getLoan",
      "outputs": [],
      "stateMutability": "nonpayable",
      "type": "function"
    },
    {
      "inputs": [
        {
          "internalType": "uint256",
          "name": "loan_id",
          "type": "uint256"
        }
      ],
      "name": "cancelLoan",
      "outputs": [],
      "stateMutability": "nonpayable",
      "type": "function"
    },
    {
      "inputs": [
        {
          "internalType": "uint256",
          "name": "loanId",
          "type": "uint256"
        }
      ],
      "name": "automaticMonthlyPayment",
      "outputs": [],
      "stateMutability": "nonpayable",
      "type": "function"
    },
    {
      "inputs": [
        {
          "internalType": "uint256",
          "name": "loanId",
          "type": "uint256"
        },
        {
          "internalType": "address",
          "name": "nftContract",
          "type": "address"
        },
        {
          "internalType": "uint256",
          "name": "tokenId",
          "type": "uint256"
        }
      ],
      "name": "depositCollateral",
      "outputs": [],
      "stateMutability": "nonpayable",
      "type": "function"
    },
    {
      "inputs": [
        {
          "internalType": "address",
          "name": "target_address",
          "type": "address"
        }
      ],
      "name": "getAccountBalance",
      "outputs": [
        {
          "internalType": "uint256",
          "name": "",
          "type": "uint256"
        }
      ],
      "stateMutability": "view",
      "type": "function",
      "constant": true
    },
    {
      "inputs": [
        {
          "internalType": "uint256",
          "name": "loan_id",
          "type": "uint256"
        }
      ],
      "name": "getLoanDetails",
      "outputs": [
        {
          "components": [
            {
              "internalType": "uint256",
              "name": "loan_id",
              "type": "uint256"
            },
            {
              "internalType": "uint256",
              "name": "amount_borrowed",
              "type": "uint256"
            },
            {
              "internalType": "int256",
              "name": "interest_rate",
              "type": "int256"
            },
            {
              "internalType": "uint256",
              "name": "time_of_repayment",
              "type": "uint256"
            },
            {
              "internalType": "address payable",
              "name": "borrower_id",
              "type": "address"
            },
            {
              "internalType": "address",
              "name": "sender_id",
              "type": "address"
            },
            {
              "internalType": "uint256",
              "name": "amount_repayed",
              "type": "uint256"
            },
            {
              "internalType": "bool",
              "name": "isRepaid",
              "type": "bool"
            }
          ],
          "internalType": "struct Loan.Loan_info",
          "name": "",
          "type": "tuple"
        }
      ],
      "stateMutability": "view",
      "type": "function",
      "constant": true
    }
  ],
  "bytecode": "0x608060405234801561001057600080fd5b50611d1e806100206000396000f3fe6080604052600436106100e85760003560e01c80638118785c1161008a578063e98210b111610059578063e98210b114610333578063ebea51b414610377578063f116204b146103a0578063fa47034d146103c9576100e8565b80638118785c1461027257806393423e9c146102b1578063bdbfa3de146102ee578063e0e539a914610317576100e8565b80634b7f1e5a116100c65780634b7f1e5a1461017657806350ed73b7146101ba57806366877b8d146101f85780637c4ea6c314610235576100e8565b806301477e78146100ed5780631a69287a146101315780633dec37fc1461014d575b600080fd5b3480156100f957600080fd5b50610114600480360361010f9190810190611340565b610406565b604051610128989796959493929190611b63565b60405180910390f35b61014b600480360361014691908101906113a5565b6104b5565b005b34801561015957600080fd5b50610174600480360361016f919081019061137c565b610610565b005b34801561018257600080fd5b5061019d60048036036101989190810190611340565b6107c0565b6040516101b1989796959493929190611b63565b60405180910390f35b3480156101c657600080fd5b506101e160048036036101dc919081019061137c565b61086f565b6040516101ef929190611971565b60405180910390f35b34801561020457600080fd5b5061021f600480360361021a919081019061137c565b6108b3565b60405161022c9190611af5565b60405180910390f35b34801561024157600080fd5b5061025c6004803603610257919081019061137c565b6109da565b6040516102699190611b11565b60405180910390f35b34801561027e57600080fd5b506102996004803603610294919081019061137c565b6109f2565b6040516102a893929190611b2c565b60405180910390f35b3480156102bd57600080fd5b506102d860048036036102d391908101906112db565b610a3c565b6040516102e59190611b11565b60405180910390f35b3480156102fa57600080fd5b506103156004803603610310919081019061137c565b610a5d565b005b610331600480360361032c9190810190611304565b610b00565b005b34801561033f57600080fd5b5061035a6004803603610355919081019061137c565b610c28565b60405161036e989796959493929190611b63565b60405180910390f35b34801561038357600080fd5b5061039e600480360361039991908101906113e1565b610cbd565b005b3480156103ac57600080fd5b506103c760048036036103c29190810190611430565b610f01565b005b3480156103d557600080fd5b506103f060048036036103eb919081019061137c565b6110e1565b6040516103fd9190611ada565b60405180910390f35b6006602052816000526040600020818154811061041f57fe5b9060005260206000209060080201600091509150508060000154908060010154908060020154908060030154908060040160009054906101000a900473ffffffffffffffffffffffffffffffffffffffff16908060050160009054906101000a900473ffffffffffffffffffffffffffffffffffffffff16908060060154908060070160009054906101000a900460ff16905088565b6104bd6111dd565b604051806060016040528060015481526020018481526020018373ffffffffffffffffffffffffffffffffffffffff16815250905080600360006001548152602001908152602001600020600082015181600001556020820151816001015560408201518160020160006101000a81548173ffffffffffffffffffffffffffffffffffffffff021916908373ffffffffffffffffffffffffffffffffffffffff160217905550905050600160008154809291906001019190505550348273ffffffffffffffffffffffffffffffffffffffff1631116105d1576040517f08c379a00000000000000000000000000000000000000000000000000000000081526004016105c8906119ba565b60405180910390fd5b60003073ffffffffffffffffffffffffffffffffffffffff166108fc349081150290604051600060405180830381858888f19350505050905050505050565b6000600260008381526020019081526020016000209050600061063283611178565b90508160070160009054906101000a900460ff1615610686576040517f08c379a000000000000000000000000000000000000000000000000000000000815260040161067d906119fa565b60405180910390fd5b804710156106c9576040517f08c379a00000000000000000000000000000000000000000000000000000000081526004016106c090611aba565b60405180910390fd5b60008260040160009054906101000a900473ffffffffffffffffffffffffffffffffffffffff1673ffffffffffffffffffffffffffffffffffffffff166108fc839081150290604051600060405180830381858888f19350505050905080610766576040517f08c379a000000000000000000000000000000000000000000000000000000000815260040161075d90611a3a565b60405180910390fd5b81836006016000828254019250508190555062278d00836003016000828254019250508190555082600101548360060154106107ba5760018360070160006101000a81548160ff0219169083151502179055505b50505050565b600560205281600052604060002081815481106107d957fe5b9060005260206000209060080201600091509150508060000154908060010154908060020154908060030154908060040160009054906101000a900473ffffffffffffffffffffffffffffffffffffffff16908060050160009054906101000a900473ffffffffffffffffffffffffffffffffffffffff16908060060154908060070160009054906101000a900460ff16905088565b60046020528060005260406000206000915090508060000160009054906101000a900473ffffffffffffffffffffffffffffffffffffffff16908060010154905082565b6108bb611214565b6002600083815260200190815260200160002060405180610100016040529081600082015481526020016001820154815260200160028201548152602001600382015481526020016004820160009054906101000a900473ffffffffffffffffffffffffffffffffffffffff1673ffffffffffffffffffffffffffffffffffffffff1673ffffffffffffffffffffffffffffffffffffffff1681526020016005820160009054906101000a900473ffffffffffffffffffffffffffffffffffffffff1673ffffffffffffffffffffffffffffffffffffffff1673ffffffffffffffffffffffffffffffffffffffff168152602001600682015481526020016007820160009054906101000a900460ff1615151515815250509050919050565b60076020528060005260406000206000915090505481565b60036020528060005260406000206000915090508060000154908060010154908060020160009054906101000a900473ffffffffffffffffffffffffffffffffffffffff16905083565b60008173ffffffffffffffffffffffffffffffffffffffff16319050919050565b600260008281526020019081526020016000206000808201600090556001820160009055600282016000905560038201600090556004820160006101000a81549073ffffffffffffffffffffffffffffffffffffffff02191690556005820160006101000a81549073ffffffffffffffffffffffffffffffffffffffff021916905560068201600090556007820160006101000a81549060ff0219169055505050565b348273ffffffffffffffffffffffffffffffffffffffff16311015610b5a576040517f08c379a0000000000000000000000000000000000000000000000000000000008152600401610b519061199a565b60405180910390fd5b60008173ffffffffffffffffffffffffffffffffffffffff166108fc349081150290604051600060405180830381858888f19350505050905080610bd3576040517f08c379a0000000000000000000000000000000000000000000000000000000008152600401610bca90611a5a565b60405180910390fd5b7ff950957d2407bed19dc99b718b46b4ce6090c05589006dfb86fd22c34865b23e828373ffffffffffffffffffffffffffffffffffffffff1631604051610c1b929190611948565b60405180910390a1505050565b60026020528060005260406000206000915090508060000154908060010154908060020154908060030154908060040160009054906101000a900473ffffffffffffffffffffffffffffffffffffffff16908060050160009054906101000a900473ffffffffffffffffffffffffffffffffffffffff16908060060154908060070160009054906101000a900460ff16905088565b6002600084815260200190815260200160002060040160009054906101000a900473ffffffffffffffffffffffffffffffffffffffff1673ffffffffffffffffffffffffffffffffffffffff163373ffffffffffffffffffffffffffffffffffffffff1614610d61576040517f08c379a0000000000000000000000000000000000000000000000000000000008152600401610d5890611a1a565b60405180910390fd5b6002600084815260200190815260200160002060070160009054906101000a900460ff1615610dc5576040517f08c379a0000000000000000000000000000000000000000000000000000000008152600401610dbc90611a7a565b60405180910390fd5b600073ffffffffffffffffffffffffffffffffffffffff166004600085815260200190815260200160002060000160009054906101000a900473ffffffffffffffffffffffffffffffffffffffff1673ffffffffffffffffffffffffffffffffffffffff1614610e6a576040517f08c379a0000000000000000000000000000000000000000000000000000000008152600401610e61906119da565b60405180910390fd5b60405180604001604052808373ffffffffffffffffffffffffffffffffffffffff168152602001828152506004600085815260200190815260200160002060008201518160000160006101000a81548173ffffffffffffffffffffffffffffffffffffffff021916908373ffffffffffffffffffffffffffffffffffffffff16021790555060208201518160010155905050505050565b848173ffffffffffffffffffffffffffffffffffffffff163111610f5a576040517f08c379a0000000000000000000000000000000000000000000000000000000008152600401610f5190611a9a565b60405180910390fd5b610f62611214565b60405180610100016040528060005481526020018781526020018681526020018581526020018473ffffffffffffffffffffffffffffffffffffffff1681526020018373ffffffffffffffffffffffffffffffffffffffff168152602001600081526020016000151581525090508060026000805481526020019081526020016000206000820151816000015560208201518160010155604082015181600201556060820151816003015560808201518160040160006101000a81548173ffffffffffffffffffffffffffffffffffffffff021916908373ffffffffffffffffffffffffffffffffffffffff16021790555060a08201518160050160006101000a81548173ffffffffffffffffffffffffffffffffffffffff021916908373ffffffffffffffffffffffffffffffffffffffff16021790555060c0820151816006015560e08201518160070160006101000a81548160ff0219169083151502179055509050506000808154809291906001019190505550505050505050565b6110e96111dd565b6003600083815260200190815260200160002060405180606001604052908160008201548152602001600182015481526020016002820160009054906101000a900473ffffffffffffffffffffffffffffffffffffffff1673ffffffffffffffffffffffffffffffffffffffff1673ffffffffffffffffffffffffffffffffffffffff16815250509050919050565b6000806002600084815260200190815260200160002090506000816006015460648360020154606401846001015402816111ae57fe5b04039050600062278d0083600301544203816111c657fe5b0490508082816111d257fe5b049350505050919050565b60405180606001604052806000815260200160008152602001600073ffffffffffffffffffffffffffffffffffffffff1681525090565b60405180610100016040528060008152602001600081526020016000815260200160008152602001600073ffffffffffffffffffffffffffffffffffffffff168152602001600073ffffffffffffffffffffffffffffffffffffffff168152602001600081526020016000151581525090565b60008135905061129681611c8c565b92915050565b6000813590506112ab81611ca3565b92915050565b6000813590506112c081611cba565b92915050565b6000813590506112d581611cd1565b92915050565b6000602082840312156112ed57600080fd5b60006112fb84828501611287565b91505092915050565b6000806040838503121561131757600080fd5b60006113258582860161129c565b92505060206113368582860161129c565b9150509250929050565b6000806040838503121561135357600080fd5b600061136185828601611287565b9250506020611372858286016112c6565b9150509250929050565b60006020828403121561138e57600080fd5b600061139c848285016112c6565b91505092915050565b600080604083850312156113b857600080fd5b60006113c6858286016112c6565b92505060206113d785828601611287565b9150509250929050565b6000806000606084860312156113f657600080fd5b6000611404868287016112c6565b935050602061141586828701611287565b9250506040611426868287016112c6565b9150509250925092565b600080600080600060a0868803121561144857600080fd5b6000611456888289016112c6565b9550506020611467888289016112b1565b9450506040611478888289016112c6565b93505060606114898882890161129c565b925050608061149a88828901611287565b9150509295509295909350565b6114b081611c56565b82525050565b6114bf81611c04565b82525050565b6114ce81611c04565b82525050565b6114dd81611bf2565b82525050565b6114ec81611bf2565b82525050565b6114fb81611c16565b82525050565b61150a81611c16565b82525050565b61151981611c22565b82525050565b61152881611c22565b82525050565b600061153b601283611be1565b91507f496e73756666696369656e742046756e647300000000000000000000000000006000830152602082019050919050565b600061157b601a83611be1565b91507f552063616e27742070726f766964652074686174206c6f616e210000000000006000830152602082019050919050565b60006115bb602d83611be1565b91507f436f6c6c61746572616c20697320616c7265616479206465706f73697465642060008301527f666f722074686973206c6f616e000000000000000000000000000000000000006020830152604082019050919050565b6000611621601683611be1565b91507f4c6f616e20697320616c726561647920726570616964000000000000000000006000830152602082019050919050565b6000611661602883611be1565b91507f4f6e6c792074686520626f72726f7765722063616e206465706f73697420636f60008301527f6c6c61746572616c0000000000000000000000000000000000000000000000006020830152604082019050919050565b60006116c7601683611be1565b91507f4661696c656420746f2073656e64207061796d656e74000000000000000000006000830152602082019050919050565b6000611707601383611be1565b91507f5472616e73616374696f6e204661696c656421000000000000000000000000006000830152602082019050919050565b6000611747603083611be1565b91507f436f6c6c61746572616c2063616e6e6f74206265206465706f7369746564206660008301527f6f72206120726570616964206c6f616e000000000000000000000000000000006020830152604082019050919050565b60006117ad602283611be1565b91507f596f7520646f6e277420686176652066756e647320746f2067697665206c6f6160008301527f6e730000000000000000000000000000000000000000000000000000000000006020830152604082019050919050565b6000611813601d83611be1565b91507f496e73756666696369656e7420636f6e74726163742062616c616e63650000006000830152602082019050919050565b60608201600082015161185c600085018261192a565b50602082015161186f602085018261192a565b50604082015161188260408501826114d4565b50505050565b6101008201600082015161189f600085018261192a565b5060208201516118b2602085018261192a565b5060408201516118c56040850182611510565b5060608201516118d8606085018261192a565b5060808201516118eb60808501826114b6565b5060a08201516118fe60a08501826114d4565b5060c082015161191160c085018261192a565b5060e082015161192460e08501826114f2565b50505050565b61193381611c4c565b82525050565b61194281611c4c565b82525050565b600060408201905061195d60008301856114a7565b61196a6020830184611939565b9392505050565b600060408201905061198660008301856114e3565b6119936020830184611939565b9392505050565b600060208201905081810360008301526119b38161152e565b9050919050565b600060208201905081810360008301526119d38161156e565b9050919050565b600060208201905081810360008301526119f3816115ae565b9050919050565b60006020820190508181036000830152611a1381611614565b9050919050565b60006020820190508181036000830152611a3381611654565b9050919050565b60006020820190508181036000830152611a53816116ba565b9050919050565b60006020820190508181036000830152611a73816116fa565b9050919050565b60006020820190508181036000830152611a938161173a565b9050919050565b60006020820190508181036000830152611ab3816117a0565b9050919050565b60006020820190508181036000830152611ad381611806565b9050919050565b6000606082019050611aef6000830184611846565b92915050565b600061010082019050611b0b6000830184611888565b92915050565b6000602082019050611b266000830184611939565b92915050565b6000606082019050611b416000830186611939565b611b4e6020830185611939565b611b5b60408301846114e3565b949350505050565b600061010082019050611b79600083018b611939565b611b86602083018a611939565b611b93604083018961151f565b611ba06060830188611939565b611bad60808301876114c5565b611bba60a08301866114e3565b611bc760c0830185611939565b611bd460e0830184611501565b9998505050505050505050565b600082825260208201905092915050565b6000611bfd82611c2c565b9050919050565b6000611c0f82611c2c565b9050919050565b60008115159050919050565b6000819050919050565b600073ffffffffffffffffffffffffffffffffffffffff82169050919050565b6000819050919050565b6000611c6182611c68565b9050919050565b6000611c7382611c7a565b9050919050565b6000611c8582611c2c565b9050919050565b611c9581611bf2565b8114611ca057600080fd5b50565b611cac81611c04565b8114611cb757600080fd5b50565b611cc381611c22565b8114611cce57600080fd5b50565b611cda81611c4c565b8114611ce557600080fd5b5056fea26469706673582212201c99f4cd45b655fdbbab07464c00cdbd9eafabe54be4ad85868d2f63cd64e26964736f6c63430006010033",
  "source": "// SPDX-License-Identifier: MIT\npragma experimental ABIEncoderV2;\npragma solidity >=0.4.22 <0.9.0;\n\n\n\ncontract Loan {\n    uint256 private total_loans;\n    uint256 private total_provided_loans;\n    \n\n    struct Loan_info{\n        uint256 loan_id;\n        uint256 amount_borrowed;\n        int interest_rate;\n        uint256 time_of_repayment;\n        address payable borrower_id;\n        address sender_id;\n        uint256 amount_repayed;\n        bool isRepaid;\n        // Collateral collateral;\n    }\n\n    struct Loan_given{\n        uint256 loan_id;\n        uint256 loan_amount;\n        address loan_provider;\n    }\n\n\n\n\n\n    struct Collateral {\n        address nftContract;\n        uint256 tokenId;\n    }\n    \n    mapping (uint256 => Loan_info) public loans_mapping;\n    mapping (uint256 => Loan_given) public provided_loans;\n    mapping(uint256 => Collateral) public loanCollaterals;\n    mapping (address => Loan_info []) public loansByBorrower;\n    mapping (address => Loan_info []) public loansByReciever;\n    mapping(uint256 => uint256) public loansProvidedByTheirValue;\n    function sendPaisa(address payable from , address payable _to) public payable {\n    require(from.balance >= msg.value, \"Insufficient Funds\"); // Check the contract's balance\n    bool sent = _to.send(msg.value);\n    require(sent , \"Transaction Failed!\");\n    emit Log(_to, _to.balance);\n}\n\n    uint256 constant private MONTH_IN_SECONDS = 30 days; \n\n    function provideLoan(uint256 loan_amount , address loan_provider) public payable{\n        Loan_given memory loan_given = Loan_given(total_provided_loans , loan_amount , loan_provider);\n        provided_loans[total_provided_loans] = loan_given;\n        total_provided_loans++;\n        require(loan_provider.balance > msg.value , \"U can't provide that loan!\");\n        bool sent = payable(address(this)).send(msg.value);\n    }\n\n    function checkProvidedLoans(uint256 loan_id) public view returns (Loan_given memory) {\n        return provided_loans[loan_id];\n    }\n\n    function getLoan(uint256 _amount_borrowed,\n        int _interest_rate,\n        uint256 _time_of_repayment,\n        address payable _borrower_id,\n        address _sender_id\n        // Collateral memory _collateral\n        ) public {\n        require(_sender_id.balance > _amount_borrowed , \"You don't have funds to give loans\");\n        Loan_info memory loan = Loan_info(total_loans,_amount_borrowed , _interest_rate ,_time_of_repayment, _borrower_id , _sender_id , 0,false);\n        loans_mapping[total_loans] = loan;\n        total_loans++;\n    }\n\n    function calculateMonthlyPayment(uint256 loanId) internal view returns (uint256) {\n        Loan_info storage loan = loans_mapping[loanId];\n        uint256 totalLoanAmount = (loan.amount_borrowed * (100 + uint256(loan.interest_rate)) / 100 - loan.amount_repayed);\n        uint256 remainingMonths = (block.timestamp - loan.time_of_repayment) / MONTH_IN_SECONDS;\n        return totalLoanAmount / remainingMonths;\n    }\n\n    function cancelLoan(uint256 loan_id) public {\n        delete loans_mapping[loan_id];\n    }\n\n    function automaticMonthlyPayment(uint256 loanId) public {\n        Loan_info storage loan = loans_mapping[loanId];\n        uint256 amount_to_be_paid = calculateMonthlyPayment(loanId);\n        require(!loan.isRepaid, \"Loan is already repaid\");\n        // require(block.timestamp <= loan.time_of_repayment, \"Payment can only be made before the due date\");\n        require(address(this).balance >= amount_to_be_paid, \"Insufficient contract balance\");\n\n        bool sent = loan.borrower_id.send(amount_to_be_paid);\n        require(sent, \"Failed to send payment\");\n\n        // If payment goes thru->\n        loan.amount_repayed += amount_to_be_paid;\n        loan.time_of_repayment += MONTH_IN_SECONDS;\n\n        if (loan.amount_repayed >= loan.amount_borrowed) {\n            loan.isRepaid = true;\n        }\n    }\n\n    function depositCollateral(uint256 loanId, address nftContract, uint256 tokenId) public {\n        require(msg.sender == loans_mapping[loanId].borrower_id, \"Only the borrower can deposit collateral\");\n        require(!loans_mapping[loanId].isRepaid, \"Collateral cannot be deposited for a repaid loan\");\n        require(loanCollaterals[loanId].nftContract == address(0), \"Collateral is already deposited for this loan\");\n        // Transfer the NFT to this contract\n        // IERC721Enumerable(nftContract).transferFrom(msg.sender, address(this), tokenId);\n        loanCollaterals[loanId] = Collateral(nftContract, tokenId);\n        // emit CollateralDeposited(loanId, nftContract, tokenId);\n    }\n\n\n    function getAccountBalance(address target_address) public view  returns (uint256) {\n        // emit LogSender(sender_id);\n        return target_address.balance;\n    }\n\n    function getLoanDetails(uint256 loan_id) public view returns (Loan_info memory) {\n        return loans_mapping[loan_id];\n    }\n\n\n    event Log(address sender , uint256 balance);\n\n    event LogSender(address sender);\n\n    event LogValue(uint256 value);\n\n    event LogMapping(Loan_info loan);\n\n    event LogMappingProvided(Loan_given loan);\n}\n\n",
  "sourcePath": "/Users/Pranav_1/Desktop/dev/SyntaxError'23/contracts/loan.sol",
  "compiler": {
    "name": "solc",
    "version": "0.6.1+commit.e6f7d5a4.Emscripten.clang"
  },
  "schemaVersion": "3.4.16",
  "updatedAt": "2023-10-28T17:15:14.382Z",
  "networkType": "ethereum",
  "devdoc": {
    "methods": {}
  },
  "userdoc": {
    "methods": {}
  }
}