{
  "contractName": "Loan",
  "abi": [
    {
      "constant": true,
      "inputs": [],
      "name": "status",
      "outputs": [
        {
          "name": "",
          "type": "uint8"
        }
      ],
      "payable": false,
      "stateMutability": "view",
      "type": "function"
    },
    {
      "inputs": [],
      "payable": false,
      "stateMutability": "nonpayable",
      "type": "constructor"
    },
    {
      "anonymous": false,
      "inputs": [
        {
          "indexed": false,
          "name": "sender",
          "type": "address"
        },
        {
          "indexed": false,
          "name": "balance",
          "type": "uint256"
        }
      ],
      "name": "Log",
      "type": "event"
    },
    {
      "anonymous": false,
      "inputs": [
        {
          "indexed": false,
          "name": "sender",
          "type": "address"
        }
      ],
      "name": "LogSender",
      "type": "event"
    },
    {
      "anonymous": false,
      "inputs": [
        {
          "indexed": false,
          "name": "value",
          "type": "uint256"
        }
      ],
      "name": "LogValue",
      "type": "event"
    },
    {
      "constant": true,
      "inputs": [],
      "name": "getLoanStatus",
      "outputs": [
        {
          "name": "",
          "type": "uint8"
        }
      ],
      "payable": false,
      "stateMutability": "view",
      "type": "function"
    },
    {
      "constant": false,
      "inputs": [
        {
          "name": "_status",
          "type": "uint8"
        }
      ],
      "name": "setLoanStatus",
      "outputs": [],
      "payable": false,
      "stateMutability": "nonpayable",
      "type": "function"
    },
    {
      "constant": false,
      "inputs": [
        {
          "name": "_to",
          "type": "address"
        },
        {
          "name": "value",
          "type": "uint256"
        }
      ],
      "name": "fundLoan",
      "outputs": [],
      "payable": true,
      "stateMutability": "payable",
      "type": "function"
    },
    {
      "constant": false,
      "inputs": [
        {
          "name": "target_address",
          "type": "address"
        }
      ],
      "name": "getAccountBalance",
      "outputs": [
        {
          "name": "",
          "type": "uint256"
        }
      ],
      "payable": false,
      "stateMutability": "nonpayable",
      "type": "function"
    }
  ],
  "bytecode": "0x608060405234801561001057600080fd5b506001600660006101000a81548160ff0219169083600481111561003057fe5b021790555033600460006101000a81548173ffffffffffffffffffffffffffffffffffffffff021916908373ffffffffffffffffffffffffffffffffffffffff1602179055506103f2806100856000396000f3fe608060405260043610610067576000357c010000000000000000000000000000000000000000000000000000000090048063200d2ed21461006c57806393423e9c146100a5578063acc1ab131461010a578063e38be0c214610143578063e920b1e114610181575b600080fd5b34801561007857600080fd5b506100816101cf565b6040518082600481111561009157fe5b60ff16815260200191505060405180910390f35b3480156100b157600080fd5b506100f4600480360360208110156100c857600080fd5b81019080803573ffffffffffffffffffffffffffffffffffffffff1690602001909291905050506101e2565b6040518082815260200191505060405180910390f35b34801561011657600080fd5b5061011f610288565b6040518082600481111561012f57fe5b60ff16815260200191505060405180910390f35b34801561014f57600080fd5b5061017f6004803603602081101561016657600080fd5b81019080803560ff16906020019092919050505061029f565b005b6101cd6004803603604081101561019757600080fd5b81019080803573ffffffffffffffffffffffffffffffffffffffff169060200190929190803590602001909291905050506102c5565b005b600660009054906101000a900460ff1681565b60007f7bbdc4cdaf68dae8f82950cdddba2d429ba45cdc33e01ddbf48570514540858c600460009054906101000a900473ffffffffffffffffffffffffffffffffffffffff16604051808273ffffffffffffffffffffffffffffffffffffffff1673ffffffffffffffffffffffffffffffffffffffff16815260200191505060405180910390a18173ffffffffffffffffffffffffffffffffffffffff16319050919050565b6000600660009054906101000a900460ff16905090565b80600660006101000a81548160ff021916908360048111156102bd57fe5b021790555050565b7ff950957d2407bed19dc99b718b46b4ce6090c05589006dfb86fd22c34865b23e600460009054906101000a900473ffffffffffffffffffffffffffffffffffffffff16600460009054906101000a900473ffffffffffffffffffffffffffffffffffffffff1673ffffffffffffffffffffffffffffffffffffffff1631604051808373ffffffffffffffffffffffffffffffffffffffff1673ffffffffffffffffffffffffffffffffffffffff1681526020018281526020019250505060405180910390a17ffcf771399d75a67a6d0e730ae98d34c40b6bfe6ebf8053b98ddf4da8c2706250816040518082815260200191505060405180910390a1505056fea165627a7a72305820303cf4afd10c0392c03e3ca53d7bc7b946c1c03102439fc0ccae240572e0b7600029",
  "source": "// SPDX-License-Identifier: MIT\npragma solidity >=0.4.22 <0.9.0;\n\ncontract Loan {\n    uint256 amount_borrowed;\n    int interest_rate;\n    uint256 time_of_repayment;\n    address borrower_id;\n    address sender_id;\n    uint256 amount_repayed;\n\n    enum Status {\n        Ongoing , \n        Granted , \n        Rejected ,\n        Success , \n        Failure\n    }\n\n    constructor() public {\n        status = Status.Granted;\n        sender_id = msg.sender;\n    }\n\n    Status public status;\n\n    function getLoanStatus() public view returns (Status){\n        return status;\n    }\n\n    function setLoanStatus(Status _status) public {\n        status = _status;\n    }\n\n    function fundLoan(address payable _to , uint256 value) public payable{\n        emit Log(sender_id , sender_id.balance);\n        emit LogValue(value);\n        // require(sender_id.balance > value , \"Insufficient Funds\");\n        // _to.transfer(value);\n        // emit Log(_to , _to.balance);\n    }\n\n    function getAccountBalance(address target_address) public returns (uint) {\n        emit LogSender(sender_id);\n        return target_address.balance;\n\n    }\n    \n    event Log(address sender , uint256 balance);\n\n    event LogSender(address sender);\n\n    event LogValue(uint256 value);\n\n\n    \n    \n}\n",
  "sourcePath": "/Users/Pranav_1/Desktop/dev/SyntaxError'23/contracts/loan.sol",
  "compiler": {
    "name": "solc",
    "version": "0.5.1+commit.c8a2cb62.Emscripten.clang"
  },
  "schemaVersion": "3.4.16",
  "updatedAt": "2023-10-28T06:19:21.399Z",
  "networkType": "ethereum",
  "devdoc": {
    "methods": {}
  },
  "userdoc": {
    "methods": {}
  }
}