{
  "contractName": "Loan",
  "abi": [
    {
      "anonymous": false,
      "inputs": [
        {
          "indexed": false,
          "internalType": "address",
          "name": "sender",
          "type": "address"
        },
        {
          "indexed": false,
          "internalType": "uint256",
          "name": "balance",
          "type": "uint256"
        }
      ],
      "name": "Log",
      "type": "event"
    },
    {
      "anonymous": false,
      "inputs": [
        {
          "components": [
            {
              "internalType": "uint256",
              "name": "loan_id",
              "type": "uint256"
            },
            {
              "internalType": "uint256",
              "name": "amount_borrowed",
              "type": "uint256"
            },
            {
              "internalType": "int256",
              "name": "interest_rate",
              "type": "int256"
            },
            {
              "internalType": "uint256",
              "name": "time_of_repayment",
              "type": "uint256"
            },
            {
              "internalType": "address payable",
              "name": "borrower_id",
              "type": "address"
            },
            {
              "internalType": "address",
              "name": "sender_id",
              "type": "address"
            },
            {
              "internalType": "uint256",
              "name": "amount_repayed",
              "type": "uint256"
            },
            {
              "internalType": "bool",
              "name": "isRepaid",
              "type": "bool"
            }
          ],
          "indexed": false,
          "internalType": "struct Loan.Loan_info",
          "name": "loan",
          "type": "tuple"
        }
      ],
      "name": "LogMapping",
      "type": "event"
    },
    {
      "anonymous": false,
      "inputs": [
        {
          "components": [
            {
              "internalType": "uint256",
              "name": "loan_id",
              "type": "uint256"
            },
            {
              "internalType": "uint256",
              "name": "loan_amount",
              "type": "uint256"
            },
            {
              "internalType": "address",
              "name": "loan_provider",
              "type": "address"
            }
          ],
          "indexed": false,
          "internalType": "struct Loan.Loan_given",
          "name": "loan",
          "type": "tuple"
        }
      ],
      "name": "LogMappingProvided",
      "type": "event"
    },
    {
      "anonymous": false,
      "inputs": [
        {
          "indexed": false,
          "internalType": "address",
          "name": "sender",
          "type": "address"
        }
      ],
      "name": "LogSender",
      "type": "event"
    },
    {
      "anonymous": false,
      "inputs": [
        {
          "indexed": false,
          "internalType": "uint256",
          "name": "value",
          "type": "uint256"
        }
      ],
      "name": "LogValue",
      "type": "event"
    },
    {
      "inputs": [
        {
          "internalType": "uint256",
          "name": "",
          "type": "uint256"
        }
      ],
      "name": "loanCollaterals",
      "outputs": [
        {
          "internalType": "address",
          "name": "nftContract",
          "type": "address"
        },
        {
          "internalType": "uint256",
          "name": "tokenId",
          "type": "uint256"
        }
      ],
      "stateMutability": "view",
      "type": "function",
      "constant": true
    },
    {
      "inputs": [
        {
          "internalType": "address",
          "name": "",
          "type": "address"
        },
        {
          "internalType": "uint256",
          "name": "",
          "type": "uint256"
        }
      ],
      "name": "loansByBorrower",
      "outputs": [
        {
          "internalType": "uint256",
          "name": "loan_id",
          "type": "uint256"
        },
        {
          "internalType": "uint256",
          "name": "amount_borrowed",
          "type": "uint256"
        },
        {
          "internalType": "int256",
          "name": "interest_rate",
          "type": "int256"
        },
        {
          "internalType": "uint256",
          "name": "time_of_repayment",
          "type": "uint256"
        },
        {
          "internalType": "address payable",
          "name": "borrower_id",
          "type": "address"
        },
        {
          "internalType": "address",
          "name": "sender_id",
          "type": "address"
        },
        {
          "internalType": "uint256",
          "name": "amount_repayed",
          "type": "uint256"
        },
        {
          "internalType": "bool",
          "name": "isRepaid",
          "type": "bool"
        }
      ],
      "stateMutability": "view",
      "type": "function",
      "constant": true
    },
    {
      "inputs": [
        {
          "internalType": "address",
          "name": "",
          "type": "address"
        },
        {
          "internalType": "uint256",
          "name": "",
          "type": "uint256"
        }
      ],
      "name": "loansByReciever",
      "outputs": [
        {
          "internalType": "uint256",
          "name": "loan_id",
          "type": "uint256"
        },
        {
          "internalType": "uint256",
          "name": "amount_borrowed",
          "type": "uint256"
        },
        {
          "internalType": "int256",
          "name": "interest_rate",
          "type": "int256"
        },
        {
          "internalType": "uint256",
          "name": "time_of_repayment",
          "type": "uint256"
        },
        {
          "internalType": "address payable",
          "name": "borrower_id",
          "type": "address"
        },
        {
          "internalType": "address",
          "name": "sender_id",
          "type": "address"
        },
        {
          "internalType": "uint256",
          "name": "amount_repayed",
          "type": "uint256"
        },
        {
          "internalType": "bool",
          "name": "isRepaid",
          "type": "bool"
        }
      ],
      "stateMutability": "view",
      "type": "function",
      "constant": true
    },
    {
      "inputs": [
        {
          "internalType": "uint256",
          "name": "",
          "type": "uint256"
        }
      ],
      "name": "loansProvidedByTheirValue",
      "outputs": [
        {
          "internalType": "uint256",
          "name": "",
          "type": "uint256"
        }
      ],
      "stateMutability": "view",
      "type": "function",
      "constant": true
    },
    {
      "inputs": [
        {
          "internalType": "uint256",
          "name": "",
          "type": "uint256"
        }
      ],
      "name": "loans_mapping",
      "outputs": [
        {
          "internalType": "uint256",
          "name": "loan_id",
          "type": "uint256"
        },
        {
          "internalType": "uint256",
          "name": "amount_borrowed",
          "type": "uint256"
        },
        {
          "internalType": "int256",
          "name": "interest_rate",
          "type": "int256"
        },
        {
          "internalType": "uint256",
          "name": "time_of_repayment",
          "type": "uint256"
        },
        {
          "internalType": "address payable",
          "name": "borrower_id",
          "type": "address"
        },
        {
          "internalType": "address",
          "name": "sender_id",
          "type": "address"
        },
        {
          "internalType": "uint256",
          "name": "amount_repayed",
          "type": "uint256"
        },
        {
          "internalType": "bool",
          "name": "isRepaid",
          "type": "bool"
        }
      ],
      "stateMutability": "view",
      "type": "function",
      "constant": true
    },
    {
      "inputs": [
        {
          "internalType": "uint256",
          "name": "",
          "type": "uint256"
        }
      ],
      "name": "provided_loans",
      "outputs": [
        {
          "internalType": "uint256",
          "name": "loan_id",
          "type": "uint256"
        },
        {
          "internalType": "uint256",
          "name": "loan_amount",
          "type": "uint256"
        },
        {
          "internalType": "address",
          "name": "loan_provider",
          "type": "address"
        }
      ],
      "stateMutability": "view",
      "type": "function",
      "constant": true
    },
    {
      "inputs": [
        {
          "internalType": "address payable",
          "name": "from",
          "type": "address"
        },
        {
          "internalType": "address payable",
          "name": "_to",
          "type": "address"
        }
      ],
      "name": "sendPaisa",
      "outputs": [],
      "stateMutability": "payable",
      "type": "function",
      "payable": true
    },
    {
      "inputs": [
        {
          "internalType": "address",
          "name": "loan_provider",
          "type": "address"
        }
      ],
      "name": "provideLoan",
      "outputs": [],
      "stateMutability": "payable",
      "type": "function",
      "payable": true
    },
    {
      "inputs": [
        {
          "internalType": "uint256",
          "name": "loan_id",
          "type": "uint256"
        }
      ],
      "name": "checkProvidedLoans",
      "outputs": [
        {
          "components": [
            {
              "internalType": "uint256",
              "name": "loan_id",
              "type": "uint256"
            },
            {
              "internalType": "uint256",
              "name": "loan_amount",
              "type": "uint256"
            },
            {
              "internalType": "address",
              "name": "loan_provider",
              "type": "address"
            }
          ],
          "internalType": "struct Loan.Loan_given",
          "name": "",
          "type": "tuple"
        }
      ],
      "stateMutability": "view",
      "type": "function",
      "constant": true
    },
    {
      "inputs": [
        {
          "internalType": "uint256",
          "name": "provided_loanID",
          "type": "uint256"
        },
        {
          "internalType": "int256",
          "name": "_interest_rate",
          "type": "int256"
        },
        {
          "internalType": "uint256",
          "name": "_time_of_repayment",
          "type": "uint256"
        },
        {
          "internalType": "address payable",
          "name": "_borrower_id",
          "type": "address"
        }
      ],
      "name": "getLoan",
      "outputs": [],
      "stateMutability": "payable",
      "type": "function",
      "payable": true
    },
    {
      "inputs": [
        {
          "internalType": "uint256",
          "name": "loan_id",
          "type": "uint256"
        }
      ],
      "name": "cancelLoan",
      "outputs": [],
      "stateMutability": "nonpayable",
      "type": "function"
    },
    {
      "inputs": [
        {
          "internalType": "uint256",
          "name": "loanId",
          "type": "uint256"
        }
      ],
      "name": "automaticMonthlyPayment",
      "outputs": [],
      "stateMutability": "nonpayable",
      "type": "function"
    },
    {
      "inputs": [
        {
          "internalType": "uint256",
          "name": "loanId",
          "type": "uint256"
        },
        {
          "internalType": "address",
          "name": "nftContract",
          "type": "address"
        },
        {
          "internalType": "uint256",
          "name": "tokenId",
          "type": "uint256"
        }
      ],
      "name": "depositCollateral",
      "outputs": [],
      "stateMutability": "nonpayable",
      "type": "function"
    },
    {
      "inputs": [
        {
          "internalType": "address",
          "name": "target_address",
          "type": "address"
        }
      ],
      "name": "getAccountBalance",
      "outputs": [
        {
          "internalType": "uint256",
          "name": "",
          "type": "uint256"
        }
      ],
      "stateMutability": "view",
      "type": "function",
      "constant": true
    },
    {
      "inputs": [
        {
          "internalType": "uint256",
          "name": "loan_id",
          "type": "uint256"
        }
      ],
      "name": "getLoanDetails",
      "outputs": [
        {
          "components": [
            {
              "internalType": "uint256",
              "name": "loan_id",
              "type": "uint256"
            },
            {
              "internalType": "uint256",
              "name": "amount_borrowed",
              "type": "uint256"
            },
            {
              "internalType": "int256",
              "name": "interest_rate",
              "type": "int256"
            },
            {
              "internalType": "uint256",
              "name": "time_of_repayment",
              "type": "uint256"
            },
            {
              "internalType": "address payable",
              "name": "borrower_id",
              "type": "address"
            },
            {
              "internalType": "address",
              "name": "sender_id",
              "type": "address"
            },
            {
              "internalType": "uint256",
              "name": "amount_repayed",
              "type": "uint256"
            },
            {
              "internalType": "bool",
              "name": "isRepaid",
              "type": "bool"
            }
          ],
          "internalType": "struct Loan.Loan_info",
          "name": "",
          "type": "tuple"
        }
      ],
      "stateMutability": "view",
      "type": "function",
      "constant": true
    }
  ],
  "bytecode": "0x608060405234801561001057600080fd5b50611e67806100206000396000f3fe6080604052600436106100e85760003560e01c80638118785c1161008a578063e0e539a911610059578063e0e539a914610333578063e98210b11461034f578063ebea51b414610393578063fa47034d146103bc576100e8565b80638118785c1461027257806393423e9c146102b1578063bdbfa3de146102ee578063e0bd38ac14610317576100e8565b80634b7f1e5a116100c65780634b7f1e5a1461017657806350ed73b7146101ba57806366877b8d146101f85780637c4ea6c314610235576100e8565b806301477e78146100ed5780633dec37fc146101315780633e4e6f091461015a575b600080fd5b3480156100f957600080fd5b50610114600480360361010f91908101906114d9565b6103f9565b604051610128989796959493929190611cac565b60405180910390f35b34801561013d57600080fd5b5061015860048036036101539190810190611515565b6104a8565b005b610174600480360361016f9190810190611474565b6107d7565b005b34801561018257600080fd5b5061019d600480360361019891908101906114d9565b61089e565b6040516101b1989796959493929190611cac565b60405180910390f35b3480156101c657600080fd5b506101e160048036036101dc9190810190611515565b61094d565b6040516101ef929190611aba565b60405180910390f35b34801561020457600080fd5b5061021f600480360361021a9190810190611515565b610991565b60405161022c9190611c3e565b60405180910390f35b34801561024157600080fd5b5061025c60048036036102579190810190611515565b610ab8565b6040516102699190611c5a565b60405180910390f35b34801561027e57600080fd5b5061029960048036036102949190810190611515565b610ad0565b6040516102a893929190611c75565b60405180910390f35b3480156102bd57600080fd5b506102d860048036036102d39190810190611474565b610b1a565b6040516102e59190611c5a565b60405180910390f35b3480156102fa57600080fd5b5061031560048036036103109190810190611515565b610b3b565b005b610331600480360361032c919081019061158d565b610bde565b005b61034d6004803603610348919081019061149d565b610e79565b005b34801561035b57600080fd5b5061037660048036036103719190810190611515565b610fa1565b60405161038a989796959493929190611cac565b60405180910390f35b34801561039f57600080fd5b506103ba60048036036103b5919081019061153e565b611036565b005b3480156103c857600080fd5b506103e360048036036103de9190810190611515565b61127a565b6040516103f09190611c23565b60405180910390f35b6006602052816000526040600020818154811061041257fe5b9060005260206000209060080201600091509150508060000154908060010154908060020154908060030154908060040160009054906101000a900473ffffffffffffffffffffffffffffffffffffffff16908060050160009054906101000a900473ffffffffffffffffffffffffffffffffffffffff16908060060154908060070160009054906101000a900460ff16905088565b600060026000838152602001908152602001600020905060006104ca83611311565b90508160070160009054906101000a900460ff161561051e576040517f08c379a000000000000000000000000000000000000000000000000000000000815260040161051590611b63565b60405180910390fd5b808260040160009054906101000a900473ffffffffffffffffffffffffffffffffffffffff1673ffffffffffffffffffffffffffffffffffffffff1631101561059c576040517f08c379a000000000000000000000000000000000000000000000000000000000815260040161059390611c03565b60405180910390fd5b60008260040160009054906101000a900473ffffffffffffffffffffffffffffffffffffffff1673ffffffffffffffffffffffffffffffffffffffff166108fc839081150290604051600060405180830381858888f19350505050905080610639576040517f08c379a000000000000000000000000000000000000000000000000000000000815260040161063090611ba3565b60405180910390fd5b81836006016000828254019250508190555062278d008360030160008282540192505081905550826001015483600601541061068d5760018360070160006101000a81548160ff0219169083151502179055505b8260026000868152602001908152602001600020600082015481600001556001820154816001015560028201548160020155600382015481600301556004820160009054906101000a900473ffffffffffffffffffffffffffffffffffffffff168160040160006101000a81548173ffffffffffffffffffffffffffffffffffffffff021916908373ffffffffffffffffffffffffffffffffffffffff1602179055506005820160009054906101000a900473ffffffffffffffffffffffffffffffffffffffff168160050160006101000a81548173ffffffffffffffffffffffffffffffffffffffff021916908373ffffffffffffffffffffffffffffffffffffffff160217905550600682015481600601556007820160009054906101000a900460ff168160070160006101000a81548160ff02191690831515021790555090505050505050565b6107df611376565b604051806060016040528060015481526020013481526020018373ffffffffffffffffffffffffffffffffffffffff16815250905080600360006001548152602001908152602001600020600082015181600001556020820151816001015560408201518160020160006101000a81548173ffffffffffffffffffffffffffffffffffffffff021916908373ffffffffffffffffffffffffffffffffffffffff1602179055509050506001600081548092919060010191905055505050565b600560205281600052604060002081815481106108b757fe5b9060005260206000209060080201600091509150508060000154908060010154908060020154908060030154908060040160009054906101000a900473ffffffffffffffffffffffffffffffffffffffff16908060050160009054906101000a900473ffffffffffffffffffffffffffffffffffffffff16908060060154908060070160009054906101000a900460ff16905088565b60046020528060005260406000206000915090508060000160009054906101000a900473ffffffffffffffffffffffffffffffffffffffff16908060010154905082565b6109996113ad565b6002600083815260200190815260200160002060405180610100016040529081600082015481526020016001820154815260200160028201548152602001600382015481526020016004820160009054906101000a900473ffffffffffffffffffffffffffffffffffffffff1673ffffffffffffffffffffffffffffffffffffffff1673ffffffffffffffffffffffffffffffffffffffff1681526020016005820160009054906101000a900473ffffffffffffffffffffffffffffffffffffffff1673ffffffffffffffffffffffffffffffffffffffff1673ffffffffffffffffffffffffffffffffffffffff168152602001600682015481526020016007820160009054906101000a900460ff1615151515815250509050919050565b60076020528060005260406000206000915090505481565b60036020528060005260406000206000915090508060000154908060010154908060020160009054906101000a900473ffffffffffffffffffffffffffffffffffffffff16905083565b60008173ffffffffffffffffffffffffffffffffffffffff16319050919050565b600260008281526020019081526020016000206000808201600090556001820160009055600282016000905560038201600090556004820160006101000a81549073ffffffffffffffffffffffffffffffffffffffff02191690556005820160006101000a81549073ffffffffffffffffffffffffffffffffffffffff021916905560068201600090556007820160006101000a81549060ff0219169055505050565b60006003600086815260200190815260200160002060020160009054906101000a900473ffffffffffffffffffffffffffffffffffffffff16905060006003600087815260200190815260200160002060010154905080471015610c77576040517f08c379a0000000000000000000000000000000000000000000000000000000008152600401610c6e90611b43565b60405180910390fd5b610c7f6113ad565b60405180610100016040528060005481526020018381526020018781526020018681526020018573ffffffffffffffffffffffffffffffffffffffff1681526020018473ffffffffffffffffffffffffffffffffffffffff168152602001600081526020016000151581525090508060026000805481526020019081526020016000206000820151816000015560208201518160010155604082015181600201556060820151816003015560808201518160040160006101000a81548173ffffffffffffffffffffffffffffffffffffffff021916908373ffffffffffffffffffffffffffffffffffffffff16021790555060a08201518160050160006101000a81548173ffffffffffffffffffffffffffffffffffffffff021916908373ffffffffffffffffffffffffffffffffffffffff16021790555060c0820151816006015560e08201518160070160006101000a81548160ff021916908315150217905550905050600080815480929190600101919050555060008473ffffffffffffffffffffffffffffffffffffffff166108fc849081150290604051600060405180830381858888f19350505050905080610e6f576040517f08c379a0000000000000000000000000000000000000000000000000000000008152600401610e6690611b03565b60405180910390fd5b5050505050505050565b348273ffffffffffffffffffffffffffffffffffffffff16311015610ed3576040517f08c379a0000000000000000000000000000000000000000000000000000000008152600401610eca90611ae3565b60405180910390fd5b60008173ffffffffffffffffffffffffffffffffffffffff166108fc349081150290604051600060405180830381858888f19350505050905080610f4c576040517f08c379a0000000000000000000000000000000000000000000000000000000008152600401610f4390611bc3565b60405180910390fd5b7ff950957d2407bed19dc99b718b46b4ce6090c05589006dfb86fd22c34865b23e828373ffffffffffffffffffffffffffffffffffffffff1631604051610f94929190611a91565b60405180910390a1505050565b60026020528060005260406000206000915090508060000154908060010154908060020154908060030154908060040160009054906101000a900473ffffffffffffffffffffffffffffffffffffffff16908060050160009054906101000a900473ffffffffffffffffffffffffffffffffffffffff16908060060154908060070160009054906101000a900460ff16905088565b6002600084815260200190815260200160002060040160009054906101000a900473ffffffffffffffffffffffffffffffffffffffff1673ffffffffffffffffffffffffffffffffffffffff163373ffffffffffffffffffffffffffffffffffffffff16146110da576040517f08c379a00000000000000000000000000000000000000000000000000000000081526004016110d190611b83565b60405180910390fd5b6002600084815260200190815260200160002060070160009054906101000a900460ff161561113e576040517f08c379a000000000000000000000000000000000000000000000000000000000815260040161113590611be3565b60405180910390fd5b600073ffffffffffffffffffffffffffffffffffffffff166004600085815260200190815260200160002060000160009054906101000a900473ffffffffffffffffffffffffffffffffffffffff1673ffffffffffffffffffffffffffffffffffffffff16146111e3576040517f08c379a00000000000000000000000000000000000000000000000000000000081526004016111da90611b23565b60405180910390fd5b60405180604001604052808373ffffffffffffffffffffffffffffffffffffffff168152602001828152506004600085815260200190815260200160002060008201518160000160006101000a81548173ffffffffffffffffffffffffffffffffffffffff021916908373ffffffffffffffffffffffffffffffffffffffff16021790555060208201518160010155905050505050565b611282611376565b6003600083815260200190815260200160002060405180606001604052908160008201548152602001600182015481526020016002820160009054906101000a900473ffffffffffffffffffffffffffffffffffffffff1673ffffffffffffffffffffffffffffffffffffffff1673ffffffffffffffffffffffffffffffffffffffff16815250509050919050565b60008060026000848152602001908152602001600020905060008160060154606483600201546064018460010154028161134757fe5b04039050600062278d00836003015442038161135f57fe5b04905080828161136b57fe5b049350505050919050565b60405180606001604052806000815260200160008152602001600073ffffffffffffffffffffffffffffffffffffffff1681525090565b60405180610100016040528060008152602001600081526020016000815260200160008152602001600073ffffffffffffffffffffffffffffffffffffffff168152602001600073ffffffffffffffffffffffffffffffffffffffff168152602001600081526020016000151581525090565b60008135905061142f81611dd5565b92915050565b60008135905061144481611dec565b92915050565b60008135905061145981611e03565b92915050565b60008135905061146e81611e1a565b92915050565b60006020828403121561148657600080fd5b600061149484828501611420565b91505092915050565b600080604083850312156114b057600080fd5b60006114be85828601611435565b92505060206114cf85828601611435565b9150509250929050565b600080604083850312156114ec57600080fd5b60006114fa85828601611420565b925050602061150b8582860161145f565b9150509250929050565b60006020828403121561152757600080fd5b60006115358482850161145f565b91505092915050565b60008060006060848603121561155357600080fd5b60006115618682870161145f565b935050602061157286828701611420565b92505060406115838682870161145f565b9150509250925092565b600080600080608085870312156115a357600080fd5b60006115b18782880161145f565b94505060206115c28782880161144a565b93505060406115d38782880161145f565b92505060606115e487828801611435565b91505092959194509250565b6115f981611d9f565b82525050565b61160881611d4d565b82525050565b61161781611d4d565b82525050565b61162681611d3b565b82525050565b61163581611d3b565b82525050565b61164481611d5f565b82525050565b61165381611d5f565b82525050565b61166281611d6b565b82525050565b61167181611d6b565b82525050565b6000611684601283611d2a565b91507f496e73756666696369656e742046756e647300000000000000000000000000006000830152602082019050919050565b60006116c4602483611d2a565b91507f4661696c656420746f2073656e6420457468657220746f2074686520626f727260008301527f6f776572000000000000000000000000000000000000000000000000000000006020830152604082019050919050565b600061172a602d83611d2a565b91507f436f6c6c61746572616c20697320616c7265616479206465706f73697465642060008301527f666f722074686973206c6f616e000000000000000000000000000000000000006020830152604082019050919050565b6000611790602083611d2a565b91507f436f6e74726163742062616c616e636520697320696e73756666696369656e746000830152602082019050919050565b60006117d0601683611d2a565b91507f4c6f616e20697320616c726561647920726570616964000000000000000000006000830152602082019050919050565b6000611810602883611d2a565b91507f4f6e6c792074686520626f72726f7765722063616e206465706f73697420636f60008301527f6c6c61746572616c0000000000000000000000000000000000000000000000006020830152604082019050919050565b6000611876601683611d2a565b91507f4661696c656420746f2073656e64207061796d656e74000000000000000000006000830152602082019050919050565b60006118b6601383611d2a565b91507f5472616e73616374696f6e204661696c656421000000000000000000000000006000830152602082019050919050565b60006118f6603083611d2a565b91507f436f6c6c61746572616c2063616e6e6f74206265206465706f7369746564206660008301527f6f72206120726570616964206c6f616e000000000000000000000000000000006020830152604082019050919050565b600061195c601d83611d2a565b91507f496e73756666696369656e7420636f6e74726163742062616c616e63650000006000830152602082019050919050565b6060820160008201516119a56000850182611a73565b5060208201516119b86020850182611a73565b5060408201516119cb604085018261161d565b50505050565b610100820160008201516119e86000850182611a73565b5060208201516119fb6020850182611a73565b506040820151611a0e6040850182611659565b506060820151611a216060850182611a73565b506080820151611a3460808501826115ff565b5060a0820151611a4760a085018261161d565b5060c0820151611a5a60c0850182611a73565b5060e0820151611a6d60e085018261163b565b50505050565b611a7c81611d95565b82525050565b611a8b81611d95565b82525050565b6000604082019050611aa660008301856115f0565b611ab36020830184611a82565b9392505050565b6000604082019050611acf600083018561162c565b611adc6020830184611a82565b9392505050565b60006020820190508181036000830152611afc81611677565b9050919050565b60006020820190508181036000830152611b1c816116b7565b9050919050565b60006020820190508181036000830152611b3c8161171d565b9050919050565b60006020820190508181036000830152611b5c81611783565b9050919050565b60006020820190508181036000830152611b7c816117c3565b9050919050565b60006020820190508181036000830152611b9c81611803565b9050919050565b60006020820190508181036000830152611bbc81611869565b9050919050565b60006020820190508181036000830152611bdc816118a9565b9050919050565b60006020820190508181036000830152611bfc816118e9565b9050919050565b60006020820190508181036000830152611c1c8161194f565b9050919050565b6000606082019050611c38600083018461198f565b92915050565b600061010082019050611c5460008301846119d1565b92915050565b6000602082019050611c6f6000830184611a82565b92915050565b6000606082019050611c8a6000830186611a82565b611c976020830185611a82565b611ca4604083018461162c565b949350505050565b600061010082019050611cc2600083018b611a82565b611ccf602083018a611a82565b611cdc6040830189611668565b611ce96060830188611a82565b611cf6608083018761160e565b611d0360a083018661162c565b611d1060c0830185611a82565b611d1d60e083018461164a565b9998505050505050505050565b600082825260208201905092915050565b6000611d4682611d75565b9050919050565b6000611d5882611d75565b9050919050565b60008115159050919050565b6000819050919050565b600073ffffffffffffffffffffffffffffffffffffffff82169050919050565b6000819050919050565b6000611daa82611db1565b9050919050565b6000611dbc82611dc3565b9050919050565b6000611dce82611d75565b9050919050565b611dde81611d3b565b8114611de957600080fd5b50565b611df581611d4d565b8114611e0057600080fd5b50565b611e0c81611d6b565b8114611e1757600080fd5b50565b611e2381611d95565b8114611e2e57600080fd5b5056fea264697066735822122044820f59e5f117c0bff48a58b2b4584e78f5e0b62bcb8e9451d79f5182aca69464736f6c63430006010033",
  "source": "// SPDX-License-Identifier: MIT\npragma experimental ABIEncoderV2;\npragma solidity >=0.4.22 <0.9.0;\n\n\n\ncontract Loan {\n    uint256 private total_loans;\n    uint256 private total_provided_loans;\n    \n\n    struct Loan_info{\n        uint256 loan_id;\n        uint256 amount_borrowed;\n        int interest_rate;\n        uint256 time_of_repayment;\n        address payable borrower_id;\n        address sender_id;\n        uint256 amount_repayed;\n        bool isRepaid;\n        // Collateral collateral;\n    }\n\n    struct Loan_given{\n        uint256 loan_id;\n        uint256 loan_amount;\n        address loan_provider;\n    }\n\n\n\n\n\n    struct Collateral {\n        address nftContract;\n        uint256 tokenId;\n    }\n    \n    mapping (uint256 => Loan_info) public loans_mapping;\n    mapping (uint256 => Loan_given) public provided_loans;\n    mapping(uint256 => Collateral) public loanCollaterals;\n    mapping (address => Loan_info []) public loansByBorrower;\n    mapping (address => Loan_info []) public loansByReciever;\n    mapping(uint256 => uint256) public loansProvidedByTheirValue;\n    function sendPaisa(address payable from , address payable _to) public payable {\n    require(from.balance >= msg.value, \"Insufficient Funds\"); // Check the contract's balance\n    bool sent = _to.send(msg.value);\n    require(sent , \"Transaction Failed!\");\n    emit Log(_to, _to.balance);\n}\n\n    uint256 constant private MONTH_IN_SECONDS = 30 days; \n\n    function provideLoan(address loan_provider) public payable{\n        Loan_given memory loan_given = Loan_given(total_provided_loans , msg.value , loan_provider);\n        provided_loans[total_provided_loans] = loan_given;\n        total_provided_loans++;   \n    }\n\n    function checkProvidedLoans(uint256 loan_id) public view returns (Loan_given memory) {\n        return provided_loans[loan_id];\n    }\n\n   function getLoan(\n    uint256 provided_loanID,\n    int _interest_rate,\n    uint256 _time_of_repayment,\n    address payable _borrower_id\n) public payable {\n    address _sender_id = provided_loans[provided_loanID].loan_provider;\n    uint256 _amount_borrowed = provided_loans[provided_loanID].loan_amount;\n    require(address(this).balance >= _amount_borrowed, \"Contract balance is insufficient\");\n\n    // Create the Loan_info struct and store it\n    Loan_info memory loan = Loan_info(total_loans, _amount_borrowed, _interest_rate, _time_of_repayment, _borrower_id, _sender_id, 0, false);\n    loans_mapping[total_loans] = loan;\n    total_loans++;\n\n    // Send the amount to the borrower\n    bool sent = _borrower_id.send(_amount_borrowed);\n\n    // Check if the send operation was successful\n    require(sent, \"Failed to send Ether to the borrower\");\n}\n\n\n    function calculateMonthlyPayment(uint256 loanId) internal view returns (uint256) {\n        Loan_info storage loan = loans_mapping[loanId];\n        uint256 totalLoanAmount = (loan.amount_borrowed * (100 + uint256(loan.interest_rate)) / 100 - loan.amount_repayed);\n        uint256 remainingMonths = (block.timestamp - loan.time_of_repayment) / MONTH_IN_SECONDS;\n        return totalLoanAmount / remainingMonths;\n    }\n\n    function cancelLoan(uint256 loan_id) public {\n        delete loans_mapping[loan_id];\n    }\n\n    function automaticMonthlyPayment(uint256 loanId) public {\n        Loan_info storage loan = loans_mapping[loanId];\n        uint256 amount_to_be_paid = calculateMonthlyPayment(loanId);\n        require(!loan.isRepaid, \"Loan is already repaid\");\n        // require(block.timestamp <= loan.time_of_repayment, \"Payment can only be made before the due date\");\n        require(loan.borrower_id.balance >= amount_to_be_paid, \"Insufficient contract balance\");\n\n        bool sent = loan.borrower_id.send(amount_to_be_paid);\n        require(sent, \"Failed to send payment\");\n\n        // If payment goes thru->\n        loan.amount_repayed += amount_to_be_paid;\n        loan.time_of_repayment += MONTH_IN_SECONDS;\n\n        if (loan.amount_repayed >= loan.amount_borrowed) {\n            loan.isRepaid = true;\n        }\n\n        loans_mapping[loanId] = loan;\n    }\n\n    function depositCollateral(uint256 loanId, address nftContract, uint256 tokenId) public {\n        require(msg.sender == loans_mapping[loanId].borrower_id, \"Only the borrower can deposit collateral\");\n        require(!loans_mapping[loanId].isRepaid, \"Collateral cannot be deposited for a repaid loan\");\n        require(loanCollaterals[loanId].nftContract == address(0), \"Collateral is already deposited for this loan\");\n        // Transfer the NFT to this contract\n        // IERC721Enumerable(nftContract).transferFrom(msg.sender, address(this), tokenId);\n        loanCollaterals[loanId] = Collateral(nftContract, tokenId);\n        // emit CollateralDeposited(loanId, nftContract, tokenId);\n    }\n\n\n    function getAccountBalance(address target_address) public view  returns (uint256) {\n        // emit LogSender(sender_id);\n        return target_address.balance;\n    }\n\n    function getLoanDetails(uint256 loan_id) public view returns (Loan_info memory) {\n        return loans_mapping[loan_id];\n    }\n\n\n    event Log(address sender , uint256 balance);\n\n    event LogSender(address sender);\n\n    event LogValue(uint256 value);\n\n    event LogMapping(Loan_info loan);\n\n    event LogMappingProvided(Loan_given loan);\n}\n\n",
  "sourcePath": "/Users/Pranav_1/Desktop/dev/SyntaxError'23/contracts/loan.sol",
  "compiler": {
    "name": "solc",
    "version": "0.6.1+commit.e6f7d5a4.Emscripten.clang"
  },
  "schemaVersion": "3.4.16",
  "updatedAt": "2023-10-28T18:59:52.829Z",
  "networkType": "ethereum",
  "devdoc": {
    "methods": {}
  },
  "userdoc": {
    "methods": {}
  }
}