{
  "contractName": "Loan",
  "abi": [
    {
      "constant": true,
      "inputs": [],
      "name": "status",
      "outputs": [
        {
          "name": "",
          "type": "uint8"
        }
      ],
      "payable": false,
      "stateMutability": "view",
      "type": "function"
    },
    {
      "inputs": [],
      "payable": false,
      "stateMutability": "nonpayable",
      "type": "constructor"
    },
    {
      "constant": true,
      "inputs": [],
      "name": "getLoanStatus",
      "outputs": [
        {
          "name": "",
          "type": "uint8"
        }
      ],
      "payable": false,
      "stateMutability": "view",
      "type": "function"
    },
    {
      "constant": false,
      "inputs": [
        {
          "name": "_status",
          "type": "uint8"
        }
      ],
      "name": "setLoanStatus",
      "outputs": [],
      "payable": false,
      "stateMutability": "nonpayable",
      "type": "function"
    }
  ],
  "bytecode": "0x608060405234801561001057600080fd5b506001600460146101000a81548160ff0219169083600481111561003057fe5b0217905550610182806100446000396000f3fe608060405260043610610051576000357c010000000000000000000000000000000000000000000000000000000090048063200d2ed214610056578063acc1ab131461008f578063e38be0c2146100c8575b600080fd5b34801561006257600080fd5b5061006b610106565b6040518082600481111561007b57fe5b60ff16815260200191505060405180910390f35b34801561009b57600080fd5b506100a4610119565b604051808260048111156100b457fe5b60ff16815260200191505060405180910390f35b3480156100d457600080fd5b50610104600480360360208110156100eb57600080fd5b81019080803560ff169060200190929190505050610130565b005b600460149054906101000a900460ff1681565b6000600460149054906101000a900460ff16905090565b80600460146101000a81548160ff0219169083600481111561014e57fe5b02179055505056fea165627a7a7230582084b98994a72892ca6c475014b762f47e0f80186cb4079d35c90105f7029342cd0029",
  "source": "// SPDX-License-Identifier: MIT\npragma solidity >=0.4.22 <0.9.0;\n\ncontract Loan {\n    uint256 amount_borrowed;\n    int interest_rate;\n    uint256 time_of_repayment;\n    address borrower_id;\n    address sender_id;\n\n    enum Status {\n        Ongoing , \n        Granted , \n        Rejected ,\n        Success , \n        Failure\n    }\n\n    constructor() public {\n        status = Status.Granted;\n    }\n\n    Status public status;\n\n    function getLoanStatus() public view returns (Status){\n        return status;\n    }\n\n    function setLoanStatus(Status _status) public {\n        status = _status;\n    }\n    \n    \n}\n",
  "sourcePath": "/Users/Pranav_1/Desktop/dev/SyntaxError'23/contracts/loan.sol",
  "compiler": {
    "name": "solc",
    "version": "0.5.1+commit.c8a2cb62.Emscripten.clang"
  },
  "schemaVersion": "3.4.16",
  "updatedAt": "2023-10-27T21:15:03.784Z",
  "networkType": "ethereum",
  "devdoc": {
    "methods": {}
  },
  "userdoc": {
    "methods": {}
  }
}