{
  "contractName": "Loan",
  "abi": [
    {
      "anonymous": false,
      "inputs": [
        {
          "indexed": false,
          "internalType": "address",
          "name": "sender",
          "type": "address"
        },
        {
          "indexed": false,
          "internalType": "uint256",
          "name": "balance",
          "type": "uint256"
        }
      ],
      "name": "Log",
      "type": "event"
    },
    {
      "anonymous": false,
      "inputs": [
        {
          "components": [
            {
              "internalType": "uint256",
              "name": "loan_id",
              "type": "uint256"
            },
            {
              "internalType": "uint256",
              "name": "amount_borrowed",
              "type": "uint256"
            },
            {
              "internalType": "int256",
              "name": "interest_rate",
              "type": "int256"
            },
            {
              "internalType": "uint256",
              "name": "time_of_repayment",
              "type": "uint256"
            },
            {
              "internalType": "address payable",
              "name": "borrower_id",
              "type": "address"
            },
            {
              "internalType": "address payable",
              "name": "sender_id",
              "type": "address"
            },
            {
              "internalType": "uint256",
              "name": "amount_repayed",
              "type": "uint256"
            },
            {
              "internalType": "bool",
              "name": "isRepaid",
              "type": "bool"
            }
          ],
          "indexed": false,
          "internalType": "struct Loan.Loan_info",
          "name": "loan",
          "type": "tuple"
        }
      ],
      "name": "LogMapping",
      "type": "event"
    },
    {
      "anonymous": false,
      "inputs": [
        {
          "components": [
            {
              "internalType": "uint256",
              "name": "loan_id",
              "type": "uint256"
            },
            {
              "internalType": "uint256",
              "name": "loan_amount",
              "type": "uint256"
            },
            {
              "internalType": "address",
              "name": "loan_provider",
              "type": "address"
            }
          ],
          "indexed": false,
          "internalType": "struct Loan.Loan_given",
          "name": "loan",
          "type": "tuple"
        }
      ],
      "name": "LogMappingProvided",
      "type": "event"
    },
    {
      "anonymous": false,
      "inputs": [
        {
          "indexed": false,
          "internalType": "address",
          "name": "sender",
          "type": "address"
        }
      ],
      "name": "LogSender",
      "type": "event"
    },
    {
      "anonymous": false,
      "inputs": [
        {
          "indexed": false,
          "internalType": "uint256",
          "name": "value",
          "type": "uint256"
        }
      ],
      "name": "LogValue",
      "type": "event"
    },
    {
      "anonymous": false,
      "inputs": [
        {
          "indexed": false,
          "internalType": "uint256",
          "name": "value",
          "type": "uint256"
        }
      ],
      "name": "LogValueAfter",
      "type": "event"
    },
    {
      "anonymous": false,
      "inputs": [
        {
          "indexed": false,
          "internalType": "uint256",
          "name": "value",
          "type": "uint256"
        }
      ],
      "name": "LogValueBefore",
      "type": "event"
    },
    {
      "inputs": [
        {
          "internalType": "uint256",
          "name": "",
          "type": "uint256"
        }
      ],
      "name": "loanCollaterals",
      "outputs": [
        {
          "internalType": "address",
          "name": "nftContract",
          "type": "address"
        },
        {
          "internalType": "uint256",
          "name": "tokenId",
          "type": "uint256"
        }
      ],
      "stateMutability": "view",
      "type": "function",
      "constant": true
    },
    {
      "inputs": [
        {
          "internalType": "address",
          "name": "",
          "type": "address"
        },
        {
          "internalType": "uint256",
          "name": "",
          "type": "uint256"
        }
      ],
      "name": "loansByBorrower",
      "outputs": [
        {
          "internalType": "uint256",
          "name": "loan_id",
          "type": "uint256"
        },
        {
          "internalType": "uint256",
          "name": "amount_borrowed",
          "type": "uint256"
        },
        {
          "internalType": "int256",
          "name": "interest_rate",
          "type": "int256"
        },
        {
          "internalType": "uint256",
          "name": "time_of_repayment",
          "type": "uint256"
        },
        {
          "internalType": "address payable",
          "name": "borrower_id",
          "type": "address"
        },
        {
          "internalType": "address payable",
          "name": "sender_id",
          "type": "address"
        },
        {
          "internalType": "uint256",
          "name": "amount_repayed",
          "type": "uint256"
        },
        {
          "internalType": "bool",
          "name": "isRepaid",
          "type": "bool"
        }
      ],
      "stateMutability": "view",
      "type": "function",
      "constant": true
    },
    {
      "inputs": [
        {
          "internalType": "address",
          "name": "",
          "type": "address"
        },
        {
          "internalType": "uint256",
          "name": "",
          "type": "uint256"
        }
      ],
      "name": "loansByReciever",
      "outputs": [
        {
          "internalType": "uint256",
          "name": "loan_id",
          "type": "uint256"
        },
        {
          "internalType": "uint256",
          "name": "amount_borrowed",
          "type": "uint256"
        },
        {
          "internalType": "int256",
          "name": "interest_rate",
          "type": "int256"
        },
        {
          "internalType": "uint256",
          "name": "time_of_repayment",
          "type": "uint256"
        },
        {
          "internalType": "address payable",
          "name": "borrower_id",
          "type": "address"
        },
        {
          "internalType": "address payable",
          "name": "sender_id",
          "type": "address"
        },
        {
          "internalType": "uint256",
          "name": "amount_repayed",
          "type": "uint256"
        },
        {
          "internalType": "bool",
          "name": "isRepaid",
          "type": "bool"
        }
      ],
      "stateMutability": "view",
      "type": "function",
      "constant": true
    },
    {
      "inputs": [
        {
          "internalType": "uint256",
          "name": "",
          "type": "uint256"
        }
      ],
      "name": "loansProvidedByTheirValue",
      "outputs": [
        {
          "internalType": "uint256",
          "name": "",
          "type": "uint256"
        }
      ],
      "stateMutability": "view",
      "type": "function",
      "constant": true
    },
    {
      "inputs": [
        {
          "internalType": "uint256",
          "name": "",
          "type": "uint256"
        }
      ],
      "name": "loans_mapping",
      "outputs": [
        {
          "internalType": "uint256",
          "name": "loan_id",
          "type": "uint256"
        },
        {
          "internalType": "uint256",
          "name": "amount_borrowed",
          "type": "uint256"
        },
        {
          "internalType": "int256",
          "name": "interest_rate",
          "type": "int256"
        },
        {
          "internalType": "uint256",
          "name": "time_of_repayment",
          "type": "uint256"
        },
        {
          "internalType": "address payable",
          "name": "borrower_id",
          "type": "address"
        },
        {
          "internalType": "address payable",
          "name": "sender_id",
          "type": "address"
        },
        {
          "internalType": "uint256",
          "name": "amount_repayed",
          "type": "uint256"
        },
        {
          "internalType": "bool",
          "name": "isRepaid",
          "type": "bool"
        }
      ],
      "stateMutability": "view",
      "type": "function",
      "constant": true
    },
    {
      "inputs": [
        {
          "internalType": "uint256",
          "name": "",
          "type": "uint256"
        }
      ],
      "name": "provided_loans",
      "outputs": [
        {
          "internalType": "uint256",
          "name": "loan_id",
          "type": "uint256"
        },
        {
          "internalType": "uint256",
          "name": "loan_amount",
          "type": "uint256"
        },
        {
          "internalType": "address",
          "name": "loan_provider",
          "type": "address"
        }
      ],
      "stateMutability": "view",
      "type": "function",
      "constant": true
    },
    {
      "inputs": [
        {
          "internalType": "address payable",
          "name": "from",
          "type": "address"
        },
        {
          "internalType": "address payable",
          "name": "_to",
          "type": "address"
        }
      ],
      "name": "sendPaisa",
      "outputs": [],
      "stateMutability": "payable",
      "type": "function",
      "payable": true
    },
    {
      "inputs": [
        {
          "internalType": "address",
          "name": "loan_provider",
          "type": "address"
        }
      ],
      "name": "provideLoan",
      "outputs": [],
      "stateMutability": "payable",
      "type": "function",
      "payable": true
    },
    {
      "inputs": [
        {
          "internalType": "uint256",
          "name": "loan_id",
          "type": "uint256"
        }
      ],
      "name": "checkProvidedLoans",
      "outputs": [
        {
          "components": [
            {
              "internalType": "uint256",
              "name": "loan_id",
              "type": "uint256"
            },
            {
              "internalType": "uint256",
              "name": "loan_amount",
              "type": "uint256"
            },
            {
              "internalType": "address",
              "name": "loan_provider",
              "type": "address"
            }
          ],
          "internalType": "struct Loan.Loan_given",
          "name": "",
          "type": "tuple"
        }
      ],
      "stateMutability": "view",
      "type": "function",
      "constant": true
    },
    {
      "inputs": [
        {
          "internalType": "uint256",
          "name": "provided_loanID",
          "type": "uint256"
        },
        {
          "internalType": "int256",
          "name": "_interest_rate",
          "type": "int256"
        },
        {
          "internalType": "uint256",
          "name": "_time_of_repayment",
          "type": "uint256"
        },
        {
          "internalType": "address payable",
          "name": "_borrower_id",
          "type": "address"
        }
      ],
      "name": "getLoan",
      "outputs": [],
      "stateMutability": "payable",
      "type": "function",
      "payable": true
    },
    {
      "inputs": [
        {
          "internalType": "uint256",
          "name": "loan_id",
          "type": "uint256"
        }
      ],
      "name": "cancelLoan",
      "outputs": [],
      "stateMutability": "nonpayable",
      "type": "function"
    },
    {
      "inputs": [
        {
          "internalType": "uint256",
          "name": "loanId",
          "type": "uint256"
        }
      ],
      "name": "automaticMonthlyPayment",
      "outputs": [],
      "stateMutability": "payable",
      "type": "function",
      "payable": true
    },
    {
      "inputs": [
        {
          "internalType": "uint256",
          "name": "loanId",
          "type": "uint256"
        },
        {
          "internalType": "address",
          "name": "nftContract",
          "type": "address"
        },
        {
          "internalType": "uint256",
          "name": "tokenId",
          "type": "uint256"
        }
      ],
      "name": "depositCollateral",
      "outputs": [],
      "stateMutability": "nonpayable",
      "type": "function"
    },
    {
      "inputs": [
        {
          "internalType": "address",
          "name": "target_address",
          "type": "address"
        }
      ],
      "name": "getAccountBalance",
      "outputs": [
        {
          "internalType": "uint256",
          "name": "",
          "type": "uint256"
        }
      ],
      "stateMutability": "view",
      "type": "function",
      "constant": true
    },
    {
      "inputs": [
        {
          "internalType": "uint256",
          "name": "loan_id",
          "type": "uint256"
        }
      ],
      "name": "getLoanDetails",
      "outputs": [
        {
          "components": [
            {
              "internalType": "uint256",
              "name": "loan_id",
              "type": "uint256"
            },
            {
              "internalType": "uint256",
              "name": "amount_borrowed",
              "type": "uint256"
            },
            {
              "internalType": "int256",
              "name": "interest_rate",
              "type": "int256"
            },
            {
              "internalType": "uint256",
              "name": "time_of_repayment",
              "type": "uint256"
            },
            {
              "internalType": "address payable",
              "name": "borrower_id",
              "type": "address"
            },
            {
              "internalType": "address payable",
              "name": "sender_id",
              "type": "address"
            },
            {
              "internalType": "uint256",
              "name": "amount_repayed",
              "type": "uint256"
            },
            {
              "internalType": "bool",
              "name": "isRepaid",
              "type": "bool"
            }
          ],
          "internalType": "struct Loan.Loan_info",
          "name": "",
          "type": "tuple"
        }
      ],
      "stateMutability": "view",
      "type": "function",
      "constant": true
    }
  ],
  "bytecode": "0x608060405234801561001057600080fd5b50611f61806100206000396000f3fe6080604052600436106100e85760003560e01c80638118785c1161008a578063e0e539a911610059578063e0e539a914610326578063e98210b114610342578063ebea51b414610386578063fa47034d146103af576100e8565b80638118785c1461026557806393423e9c146102a4578063bdbfa3de146102e1578063e0bd38ac1461030a576100e8565b80634b7f1e5a116100c65780634b7f1e5a1461016957806350ed73b7146101ad57806366877b8d146101eb5780637c4ea6c314610228576100e8565b806301477e78146100ed5780633dec37fc146101315780633e4e6f091461014d575b600080fd5b3480156100f957600080fd5b50610114600480360361010f91908101906115d3565b6103ec565b604051610128989796959493929190611da6565b60405180910390f35b61014b6004803603610146919081019061160f565b61049b565b005b6101676004803603610162919081019061156e565b6108e5565b005b34801561017557600080fd5b50610190600480360361018b91908101906115d3565b6109ac565b6040516101a4989796959493929190611da6565b60405180910390f35b3480156101b957600080fd5b506101d460048036036101cf919081019061160f565b610a5b565b6040516101e2929190611bb4565b60405180910390f35b3480156101f757600080fd5b50610212600480360361020d919081019061160f565b610a9f565b60405161021f9190611d38565b60405180910390f35b34801561023457600080fd5b5061024f600480360361024a919081019061160f565b610bc6565b60405161025c9190611d54565b60405180910390f35b34801561027157600080fd5b5061028c6004803603610287919081019061160f565b610bde565b60405161029b93929190611d6f565b60405180910390f35b3480156102b057600080fd5b506102cb60048036036102c6919081019061156e565b610c28565b6040516102d89190611d54565b60405180910390f35b3480156102ed57600080fd5b506103086004803603610303919081019061160f565b610c49565b005b610324600480360361031f9190810190611687565b610cec565b005b610340600480360361033b9190810190611597565b610f87565b005b34801561034e57600080fd5b506103696004803603610364919081019061160f565b6110af565b60405161037d989796959493929190611da6565b60405180910390f35b34801561039257600080fd5b506103ad60048036036103a89190810190611638565b611144565b005b3480156103bb57600080fd5b506103d660048036036103d1919081019061160f565b611388565b6040516103e39190611d1d565b60405180910390f35b6006602052816000526040600020818154811061040557fe5b9060005260206000209060080201600091509150508060000154908060010154908060020154908060030154908060040160009054906101000a900473ffffffffffffffffffffffffffffffffffffffff16908060050160009054906101000a900473ffffffffffffffffffffffffffffffffffffffff16908060060154908060070160009054906101000a900460ff16905088565b600060026000838152602001908152602001600020905060006104bd8361141f565b90507ffcf771399d75a67a6d0e730ae98d34c40b6bfe6ebf8053b98ddf4da8c2706250816040516104ee9190611d54565b60405180910390a18160070160009054906101000a900460ff1615610548576040517f08c379a000000000000000000000000000000000000000000000000000000000815260040161053f90611c5d565b60405180910390fd5b808260040160009054906101000a900473ffffffffffffffffffffffffffffffffffffffff1673ffffffffffffffffffffffffffffffffffffffff163110156105c6576040517f08c379a00000000000000000000000000000000000000000000000000000000081526004016105bd90611cfd565b60405180910390fd5b7fff9551e65e8c4b23f8b51bea123b089e63dbc2cb2086812e9c2b0a66e32fe87e8260050160009054906101000a900473ffffffffffffffffffffffffffffffffffffffff1673ffffffffffffffffffffffffffffffffffffffff16316040516106309190611d54565b60405180910390a160008260050160009054906101000a900473ffffffffffffffffffffffffffffffffffffffff1673ffffffffffffffffffffffffffffffffffffffff166108fc839081150290604051600060405180830381858888f1935050505090507f7210c853725826709864619cfc3e4ea02861e4a8c2f14c3fa8e65d18cf748bda8360050160009054906101000a900473ffffffffffffffffffffffffffffffffffffffff1673ffffffffffffffffffffffffffffffffffffffff16316040516106ff9190611d54565b60405180910390a180610747576040517f08c379a000000000000000000000000000000000000000000000000000000000815260040161073e90611c9d565b60405180910390fd5b81836006016000828254019250508190555062278d008360030160008282540192505081905550826001015483600601541061079b5760018360070160006101000a81548160ff0219169083151502179055505b8260026000868152602001908152602001600020600082015481600001556001820154816001015560028201548160020155600382015481600301556004820160009054906101000a900473ffffffffffffffffffffffffffffffffffffffff168160040160006101000a81548173ffffffffffffffffffffffffffffffffffffffff021916908373ffffffffffffffffffffffffffffffffffffffff1602179055506005820160009054906101000a900473ffffffffffffffffffffffffffffffffffffffff168160050160006101000a81548173ffffffffffffffffffffffffffffffffffffffff021916908373ffffffffffffffffffffffffffffffffffffffff160217905550600682015481600601556007820160009054906101000a900460ff168160070160006101000a81548160ff02191690831515021790555090505050505050565b6108ed611470565b604051806060016040528060015481526020013481526020018373ffffffffffffffffffffffffffffffffffffffff16815250905080600360006001548152602001908152602001600020600082015181600001556020820151816001015560408201518160020160006101000a81548173ffffffffffffffffffffffffffffffffffffffff021916908373ffffffffffffffffffffffffffffffffffffffff1602179055509050506001600081548092919060010191905055505050565b600560205281600052604060002081815481106109c557fe5b9060005260206000209060080201600091509150508060000154908060010154908060020154908060030154908060040160009054906101000a900473ffffffffffffffffffffffffffffffffffffffff16908060050160009054906101000a900473ffffffffffffffffffffffffffffffffffffffff16908060060154908060070160009054906101000a900460ff16905088565b60046020528060005260406000206000915090508060000160009054906101000a900473ffffffffffffffffffffffffffffffffffffffff16908060010154905082565b610aa76114a7565b6002600083815260200190815260200160002060405180610100016040529081600082015481526020016001820154815260200160028201548152602001600382015481526020016004820160009054906101000a900473ffffffffffffffffffffffffffffffffffffffff1673ffffffffffffffffffffffffffffffffffffffff1673ffffffffffffffffffffffffffffffffffffffff1681526020016005820160009054906101000a900473ffffffffffffffffffffffffffffffffffffffff1673ffffffffffffffffffffffffffffffffffffffff1673ffffffffffffffffffffffffffffffffffffffff168152602001600682015481526020016007820160009054906101000a900460ff1615151515815250509050919050565b60076020528060005260406000206000915090505481565b60036020528060005260406000206000915090508060000154908060010154908060020160009054906101000a900473ffffffffffffffffffffffffffffffffffffffff16905083565b60008173ffffffffffffffffffffffffffffffffffffffff16319050919050565b600260008281526020019081526020016000206000808201600090556001820160009055600282016000905560038201600090556004820160006101000a81549073ffffffffffffffffffffffffffffffffffffffff02191690556005820160006101000a81549073ffffffffffffffffffffffffffffffffffffffff021916905560068201600090556007820160006101000a81549060ff0219169055505050565b60006003600086815260200190815260200160002060020160009054906101000a900473ffffffffffffffffffffffffffffffffffffffff16905060006003600087815260200190815260200160002060010154905080471015610d85576040517f08c379a0000000000000000000000000000000000000000000000000000000008152600401610d7c90611c3d565b60405180910390fd5b610d8d6114a7565b60405180610100016040528060005481526020018381526020018781526020018681526020018573ffffffffffffffffffffffffffffffffffffffff1681526020018473ffffffffffffffffffffffffffffffffffffffff168152602001600081526020016000151581525090508060026000805481526020019081526020016000206000820151816000015560208201518160010155604082015181600201556060820151816003015560808201518160040160006101000a81548173ffffffffffffffffffffffffffffffffffffffff021916908373ffffffffffffffffffffffffffffffffffffffff16021790555060a08201518160050160006101000a81548173ffffffffffffffffffffffffffffffffffffffff021916908373ffffffffffffffffffffffffffffffffffffffff16021790555060c0820151816006015560e08201518160070160006101000a81548160ff021916908315150217905550905050600080815480929190600101919050555060008473ffffffffffffffffffffffffffffffffffffffff166108fc849081150290604051600060405180830381858888f19350505050905080610f7d576040517f08c379a0000000000000000000000000000000000000000000000000000000008152600401610f7490611bfd565b60405180910390fd5b5050505050505050565b348273ffffffffffffffffffffffffffffffffffffffff16311015610fe1576040517f08c379a0000000000000000000000000000000000000000000000000000000008152600401610fd890611bdd565b60405180910390fd5b60008173ffffffffffffffffffffffffffffffffffffffff166108fc349081150290604051600060405180830381858888f1935050505090508061105a576040517f08c379a000000000000000000000000000000000000000000000000000000000815260040161105190611cbd565b60405180910390fd5b7ff950957d2407bed19dc99b718b46b4ce6090c05589006dfb86fd22c34865b23e828373ffffffffffffffffffffffffffffffffffffffff16316040516110a2929190611b8b565b60405180910390a1505050565b60026020528060005260406000206000915090508060000154908060010154908060020154908060030154908060040160009054906101000a900473ffffffffffffffffffffffffffffffffffffffff16908060050160009054906101000a900473ffffffffffffffffffffffffffffffffffffffff16908060060154908060070160009054906101000a900460ff16905088565b6002600084815260200190815260200160002060040160009054906101000a900473ffffffffffffffffffffffffffffffffffffffff1673ffffffffffffffffffffffffffffffffffffffff163373ffffffffffffffffffffffffffffffffffffffff16146111e8576040517f08c379a00000000000000000000000000000000000000000000000000000000081526004016111df90611c7d565b60405180910390fd5b6002600084815260200190815260200160002060070160009054906101000a900460ff161561124c576040517f08c379a000000000000000000000000000000000000000000000000000000000815260040161124390611cdd565b60405180910390fd5b600073ffffffffffffffffffffffffffffffffffffffff166004600085815260200190815260200160002060000160009054906101000a900473ffffffffffffffffffffffffffffffffffffffff1673ffffffffffffffffffffffffffffffffffffffff16146112f1576040517f08c379a00000000000000000000000000000000000000000000000000000000081526004016112e890611c1d565b60405180910390fd5b60405180604001604052808373ffffffffffffffffffffffffffffffffffffffff168152602001828152506004600085815260200190815260200160002060008201518160000160006101000a81548173ffffffffffffffffffffffffffffffffffffffff021916908373ffffffffffffffffffffffffffffffffffffffff16021790555060208201518160010155905050505050565b611390611470565b6003600083815260200190815260200160002060405180606001604052908160008201548152602001600182015481526020016002820160009054906101000a900473ffffffffffffffffffffffffffffffffffffffff1673ffffffffffffffffffffffffffffffffffffffff1673ffffffffffffffffffffffffffffffffffffffff16815250509050919050565b60008060026000848152602001908152602001600020905060008160060154606483600201546064018460010154028161145557fe5b040390508160030154818161146657fe5b0492505050919050565b60405180606001604052806000815260200160008152602001600073ffffffffffffffffffffffffffffffffffffffff1681525090565b60405180610100016040528060008152602001600081526020016000815260200160008152602001600073ffffffffffffffffffffffffffffffffffffffff168152602001600073ffffffffffffffffffffffffffffffffffffffff168152602001600081526020016000151581525090565b60008135905061152981611ecf565b92915050565b60008135905061153e81611ee6565b92915050565b60008135905061155381611efd565b92915050565b60008135905061156881611f14565b92915050565b60006020828403121561158057600080fd5b600061158e8482850161151a565b91505092915050565b600080604083850312156115aa57600080fd5b60006115b88582860161152f565b92505060206115c98582860161152f565b9150509250929050565b600080604083850312156115e657600080fd5b60006115f48582860161151a565b925050602061160585828601611559565b9150509250929050565b60006020828403121561162157600080fd5b600061162f84828501611559565b91505092915050565b60008060006060848603121561164d57600080fd5b600061165b86828701611559565b935050602061166c8682870161151a565b925050604061167d86828701611559565b9150509250925092565b6000806000806080858703121561169d57600080fd5b60006116ab87828801611559565b94505060206116bc87828801611544565b93505060406116cd87828801611559565b92505060606116de8782880161152f565b91505092959194509250565b6116f381611e99565b82525050565b61170281611e47565b82525050565b61171181611e47565b82525050565b61172081611e35565b82525050565b61172f81611e35565b82525050565b61173e81611e59565b82525050565b61174d81611e59565b82525050565b61175c81611e65565b82525050565b61176b81611e65565b82525050565b600061177e601283611e24565b91507f496e73756666696369656e742046756e647300000000000000000000000000006000830152602082019050919050565b60006117be602483611e24565b91507f4661696c656420746f2073656e6420457468657220746f2074686520626f727260008301527f6f776572000000000000000000000000000000000000000000000000000000006020830152604082019050919050565b6000611824602d83611e24565b91507f436f6c6c61746572616c20697320616c7265616479206465706f73697465642060008301527f666f722074686973206c6f616e000000000000000000000000000000000000006020830152604082019050919050565b600061188a602083611e24565b91507f436f6e74726163742062616c616e636520697320696e73756666696369656e746000830152602082019050919050565b60006118ca601683611e24565b91507f4c6f616e20697320616c726561647920726570616964000000000000000000006000830152602082019050919050565b600061190a602883611e24565b91507f4f6e6c792074686520626f72726f7765722063616e206465706f73697420636f60008301527f6c6c61746572616c0000000000000000000000000000000000000000000000006020830152604082019050919050565b6000611970601683611e24565b91507f4661696c656420746f2073656e64207061796d656e74000000000000000000006000830152602082019050919050565b60006119b0601383611e24565b91507f5472616e73616374696f6e204661696c656421000000000000000000000000006000830152602082019050919050565b60006119f0603083611e24565b91507f436f6c6c61746572616c2063616e6e6f74206265206465706f7369746564206660008301527f6f72206120726570616964206c6f616e000000000000000000000000000000006020830152604082019050919050565b6000611a56601d83611e24565b91507f496e73756666696369656e7420636f6e74726163742062616c616e63650000006000830152602082019050919050565b606082016000820151611a9f6000850182611b6d565b506020820151611ab26020850182611b6d565b506040820151611ac56040850182611717565b50505050565b61010082016000820151611ae26000850182611b6d565b506020820151611af56020850182611b6d565b506040820151611b086040850182611753565b506060820151611b1b6060850182611b6d565b506080820151611b2e60808501826116f9565b5060a0820151611b4160a08501826116f9565b5060c0820151611b5460c0850182611b6d565b5060e0820151611b6760e0850182611735565b50505050565b611b7681611e8f565b82525050565b611b8581611e8f565b82525050565b6000604082019050611ba060008301856116ea565b611bad6020830184611b7c565b9392505050565b6000604082019050611bc96000830185611726565b611bd66020830184611b7c565b9392505050565b60006020820190508181036000830152611bf681611771565b9050919050565b60006020820190508181036000830152611c16816117b1565b9050919050565b60006020820190508181036000830152611c3681611817565b9050919050565b60006020820190508181036000830152611c568161187d565b9050919050565b60006020820190508181036000830152611c76816118bd565b9050919050565b60006020820190508181036000830152611c96816118fd565b9050919050565b60006020820190508181036000830152611cb681611963565b9050919050565b60006020820190508181036000830152611cd6816119a3565b9050919050565b60006020820190508181036000830152611cf6816119e3565b9050919050565b60006020820190508181036000830152611d1681611a49565b9050919050565b6000606082019050611d326000830184611a89565b92915050565b600061010082019050611d4e6000830184611acb565b92915050565b6000602082019050611d696000830184611b7c565b92915050565b6000606082019050611d846000830186611b7c565b611d916020830185611b7c565b611d9e6040830184611726565b949350505050565b600061010082019050611dbc600083018b611b7c565b611dc9602083018a611b7c565b611dd66040830189611762565b611de36060830188611b7c565b611df06080830187611708565b611dfd60a0830186611708565b611e0a60c0830185611b7c565b611e1760e0830184611744565b9998505050505050505050565b600082825260208201905092915050565b6000611e4082611e6f565b9050919050565b6000611e5282611e6f565b9050919050565b60008115159050919050565b6000819050919050565b600073ffffffffffffffffffffffffffffffffffffffff82169050919050565b6000819050919050565b6000611ea482611eab565b9050919050565b6000611eb682611ebd565b9050919050565b6000611ec882611e6f565b9050919050565b611ed881611e35565b8114611ee357600080fd5b50565b611eef81611e47565b8114611efa57600080fd5b50565b611f0681611e65565b8114611f1157600080fd5b50565b611f1d81611e8f565b8114611f2857600080fd5b5056fea264697066735822122064a71ad7e6ee2ff7818d7bfe3e5c5652485cea0cbb8feb9d784018ccec5b6a1e64736f6c63430006010033",
  "source": "// SPDX-License-Identifier: MIT\npragma experimental ABIEncoderV2;\npragma solidity >=0.4.22 <0.9.0;\n\n\n\ncontract Loan {\n    uint256 private total_loans;\n    uint256 private total_provided_loans;\n    \n\n    struct Loan_info{\n        uint256 loan_id;\n        uint256 amount_borrowed;\n        int interest_rate;\n        uint256 time_of_repayment;\n        address payable borrower_id;\n        address payable sender_id;\n        uint256 amount_repayed;\n        bool isRepaid;\n        // Collateral collateral;\n    }\n\n    struct Loan_given{\n        uint256 loan_id;\n        uint256 loan_amount;\n        address loan_provider;\n    }\n\n\n\n\n\n    struct Collateral {\n        address nftContract;\n        uint256 tokenId;\n    }\n    \n    mapping (uint256 => Loan_info) public loans_mapping;\n    mapping (uint256 => Loan_given) public provided_loans;\n    mapping(uint256 => Collateral) public loanCollaterals;\n    mapping (address => Loan_info []) public loansByBorrower;\n    mapping (address => Loan_info []) public loansByReciever;\n    mapping(uint256 => uint256) public loansProvidedByTheirValue;\n    function sendPaisa(address payable from , address payable _to) public payable {\n    require(from.balance >= msg.value, \"Insufficient Funds\"); // Check the contract's balance\n    bool sent = _to.send(msg.value);\n    require(sent , \"Transaction Failed!\");\n    emit Log(_to, _to.balance);\n}\n\n    uint256 constant private MONTH_IN_SECONDS = 30 days; \n\n    function provideLoan(address loan_provider) public payable{\n        Loan_given memory loan_given = Loan_given(total_provided_loans , msg.value , loan_provider);\n        provided_loans[total_provided_loans] = loan_given;\n        total_provided_loans++;   \n    }\n\n    function checkProvidedLoans(uint256 loan_id) public view returns (Loan_given memory) {\n        return provided_loans[loan_id];\n    }\n\n   function getLoan(\n    uint256 provided_loanID,\n    int _interest_rate,\n    uint256 _time_of_repayment,\n    address payable _borrower_id\n) public payable {\n    address _sender_id = provided_loans[provided_loanID].loan_provider;\n    uint256 _amount_borrowed = provided_loans[provided_loanID].loan_amount;\n    require(address(this).balance >= _amount_borrowed, \"Contract balance is insufficient\");\n\n    // Create the Loan_info struct and store it\n    Loan_info memory loan = Loan_info(total_loans, _amount_borrowed, _interest_rate, _time_of_repayment, _borrower_id, payable(_sender_id), 0, false);\n    loans_mapping[total_loans] = loan;\n    total_loans++;\n\n    // Send the amount to the borrower\n    bool sent = _borrower_id.send(_amount_borrowed);\n    // Check if the send operation was successful\n    require(sent, \"Failed to send Ether to the borrower\");\n}\n\n\n    function calculateMonthlyPayment(uint256 loanId) internal view returns (uint256) {\n        Loan_info storage loan = loans_mapping[loanId];\n        uint256 totalLoanAmount = ((loan.amount_borrowed * (100 + uint256(loan.interest_rate)) / 100) - loan.amount_repayed);\n        // uint256 remainingMonths = (block.timestamp - loan.time_of_repayment) / MONTH_IN_SECONDS;\n        return totalLoanAmount  / loan.time_of_repayment;\n    }\n\n    function cancelLoan(uint256 loan_id) public {\n        delete loans_mapping[loan_id];\n    }\n\n    function automaticMonthlyPayment(uint256 loanId) public payable{\n        Loan_info storage loan = loans_mapping[loanId];\n        uint256 amount_to_be_paid = calculateMonthlyPayment(loanId);\n        emit LogValue(amount_to_be_paid);\n        require(!loan.isRepaid, \"Loan is already repaid\");\n        // require(block.timestamp <= loan.time_of_repayment, \"Payment can only be made before the due date\");\n        require(loan.borrower_id.balance >= amount_to_be_paid, \"Insufficient contract balance\");\n        // require(msg.value == amount_to_be_paid , \"Error\");\n        emit LogValueBefore(loan.sender_id.balance);\n        bool sent = payable(loan.sender_id).send(amount_to_be_paid);\n        emit LogValueAfter(loan.sender_id.balance);\n        require(sent, \"Failed to send payment\");\n\n        // If payment goes thru->\n        loan.amount_repayed += amount_to_be_paid;\n        loan.time_of_repayment += MONTH_IN_SECONDS;\n\n        if (loan.amount_repayed >= loan.amount_borrowed) {\n            loan.isRepaid = true;\n        }\n\n        loans_mapping[loanId] = loan;\n    }\n\n    function depositCollateral(uint256 loanId, address nftContract, uint256 tokenId) public {\n        require(msg.sender == loans_mapping[loanId].borrower_id, \"Only the borrower can deposit collateral\");\n        require(!loans_mapping[loanId].isRepaid, \"Collateral cannot be deposited for a repaid loan\");\n        require(loanCollaterals[loanId].nftContract == address(0), \"Collateral is already deposited for this loan\");\n        // Transfer the NFT to this contract\n        // IERC721Enumerable(nftContract).transferFrom(msg.sender, address(this), tokenId);\n        loanCollaterals[loanId] = Collateral(nftContract, tokenId);\n        // emit CollateralDeposited(loanId, nftContract, tokenId);\n    }\n\n\n    function getAccountBalance(address target_address) public view  returns (uint256) {\n        // emit LogSender(sender_id);\n        return target_address.balance;\n    }\n\n    function getLoanDetails(uint256 loan_id) public view returns (Loan_info memory) {\n        return loans_mapping[loan_id];\n    }\n\n\n    event Log(address sender , uint256 balance);\n\n    event LogSender(address sender);\n\n    event LogValueBefore(uint256 value);\n    event LogValueAfter(uint256 value);\n    event LogValue(uint256 value);\n\n    event LogMapping(Loan_info loan);\n\n    event LogMappingProvided(Loan_given loan);\n}\n\n",
  "sourcePath": "/Users/Pranav_1/Desktop/dev/SyntaxError'23/contracts/loan.sol",
  "compiler": {
    "name": "solc",
    "version": "0.6.1+commit.e6f7d5a4.Emscripten.clang"
  },
  "schemaVersion": "3.4.16",
  "updatedAt": "2023-10-28T21:01:00.255Z",
  "networkType": "ethereum",
  "devdoc": {
    "methods": {}
  },
  "userdoc": {
    "methods": {}
  }
}