{
  "contractName": "Loan",
  "abi": [
    {
      "constant": true,
      "inputs": [],
      "name": "status",
      "outputs": [
        {
          "name": "",
          "type": "uint8"
        }
      ],
      "payable": false,
      "stateMutability": "view",
      "type": "function"
    },
    {
      "inputs": [],
      "payable": false,
      "stateMutability": "nonpayable",
      "type": "constructor"
    },
    {
      "anonymous": false,
      "inputs": [
        {
          "indexed": false,
          "name": "sender",
          "type": "address"
        },
        {
          "indexed": false,
          "name": "balance",
          "type": "uint256"
        }
      ],
      "name": "Log",
      "type": "event"
    },
    {
      "anonymous": false,
      "inputs": [
        {
          "indexed": false,
          "name": "sender",
          "type": "address"
        }
      ],
      "name": "LogSender",
      "type": "event"
    },
    {
      "anonymous": false,
      "inputs": [
        {
          "indexed": false,
          "name": "value",
          "type": "uint256"
        }
      ],
      "name": "LogValue",
      "type": "event"
    },
    {
      "constant": true,
      "inputs": [],
      "name": "getLoanStatus",
      "outputs": [
        {
          "name": "",
          "type": "uint8"
        }
      ],
      "payable": false,
      "stateMutability": "view",
      "type": "function"
    },
    {
      "constant": false,
      "inputs": [
        {
          "name": "_status",
          "type": "uint8"
        }
      ],
      "name": "setLoanStatus",
      "outputs": [],
      "payable": false,
      "stateMutability": "nonpayable",
      "type": "function"
    },
    {
      "constant": false,
      "inputs": [
        {
          "name": "from",
          "type": "address"
        },
        {
          "name": "_to",
          "type": "address"
        },
        {
          "name": "value",
          "type": "uint256"
        }
      ],
      "name": "fundLoan",
      "outputs": [],
      "payable": true,
      "stateMutability": "payable",
      "type": "function"
    },
    {
      "constant": false,
      "inputs": [
        {
          "name": "target_address",
          "type": "address"
        }
      ],
      "name": "getAccountBalance",
      "outputs": [
        {
          "name": "",
          "type": "uint256"
        }
      ],
      "payable": false,
      "stateMutability": "nonpayable",
      "type": "function"
    },
    {
      "constant": false,
      "inputs": [],
      "name": "returnSenderID",
      "outputs": [
        {
          "name": "",
          "type": "address"
        }
      ],
      "payable": false,
      "stateMutability": "nonpayable",
      "type": "function"
    }
  ],
  "bytecode": "0x608060405234801561001057600080fd5b506000600660006101000a81548160ff0219169083600481111561003057fe5b021790555033600460006101000a81548173ffffffffffffffffffffffffffffffffffffffff021916908373ffffffffffffffffffffffffffffffffffffffff1602179055506104f7806100856000396000f3fe608060405260043610610072576000357c0100000000000000000000000000000000000000000000000000000000900480631aa37cec14610077578063200d2ed2146100e557806393423e9c1461011e578063aa84044014610183578063acc1ab13146101da578063e38be0c214610213575b600080fd5b6100e36004803603606081101561008d57600080fd5b81019080803573ffffffffffffffffffffffffffffffffffffffff169060200190929190803573ffffffffffffffffffffffffffffffffffffffff16906020019092919080359060200190929190505050610251565b005b3480156100f157600080fd5b506100fa6103a1565b6040518082600481111561010a57fe5b60ff16815260200191505060405180910390f35b34801561012a57600080fd5b5061016d6004803603602081101561014157600080fd5b81019080803573ffffffffffffffffffffffffffffffffffffffff1690602001909291905050506103b4565b6040518082815260200191505060405180910390f35b34801561018f57600080fd5b50610198610423565b604051808273ffffffffffffffffffffffffffffffffffffffff1673ffffffffffffffffffffffffffffffffffffffff16815260200191505060405180910390f35b3480156101e657600080fd5b506101ef61048e565b604051808260048111156101ff57fe5b60ff16815260200191505060405180910390f35b34801561021f57600080fd5b5061024f6004803603602081101561023657600080fd5b81019080803560ff1690602001909291905050506104a5565b005b808373ffffffffffffffffffffffffffffffffffffffff1631101515156102e0576040517f08c379a00000000000000000000000000000000000000000000000000000000081526004018080602001828103825260128152602001807f496e73756666696369656e742046756e6473000000000000000000000000000081525060200191505060405180910390fd5b60008273ffffffffffffffffffffffffffffffffffffffff166108fc839081150290604051600060405180830381858888f1935050505090507ff950957d2407bed19dc99b718b46b4ce6090c05589006dfb86fd22c34865b23e838473ffffffffffffffffffffffffffffffffffffffff1631604051808373ffffffffffffffffffffffffffffffffffffffff1673ffffffffffffffffffffffffffffffffffffffff1681526020018281526020019250505060405180910390a150505050565b600660009054906101000a900460ff1681565b60007ffcf771399d75a67a6d0e730ae98d34c40b6bfe6ebf8053b98ddf4da8c27062508273ffffffffffffffffffffffffffffffffffffffff16316040518082815260200191505060405180910390a18173ffffffffffffffffffffffffffffffffffffffff16319050919050565b60007f7bbdc4cdaf68dae8f82950cdddba2d429ba45cdc33e01ddbf48570514540858c33604051808273ffffffffffffffffffffffffffffffffffffffff1673ffffffffffffffffffffffffffffffffffffffff16815260200191505060405180910390a133905090565b6000600660009054906101000a900460ff16905090565b80600660006101000a81548160ff021916908360048111156104c357fe5b02179055505056fea165627a7a723058203b0fbd6d3adec2b3350784c03ba77ff711e66edb126fc759b97a9689705a415d0029",
  "source": "// SPDX-License-Identifier: MIT\npragma solidity >=0.4.22 <0.9.0;\n\ncontract Loan {\n    uint256 amount_borrowed;\n    int interest_rate;\n    uint256 time_of_repayment;\n    address borrower_id;\n    address sender_id;\n    uint256 amount_repayed;\n\n    enum Status {\n        Ongoing , \n        Granted , \n        Rejected ,\n        Success , \n        Failure\n    }\n\n    constructor() public {\n        status = Status.Ongoing;\n        sender_id = msg.sender;\n    }\n\n    Status public status;\n\n    function getLoanStatus() public view returns (Status){\n        return status;\n    }\n\n    function setLoanStatus(Status _status) public {\n        status = _status;\n    }\n\n    function fundLoan(address payable from , address payable _to, uint256 value) public payable {\n    require(from.balance >= value, \"Insufficient Funds\"); // Check the contract's balance\n    bool sent = _to.send(value);\n    emit Log(_to, _to.balance);\n}\n\n    function getAccountBalance(address target_address) public  returns (uint256) {\n        // emit LogSender(sender_id);\n        emit LogValue(target_address.balance);\n        return target_address.balance;\n    }\n\n    function returnSenderID() public returns (address){\n        emit LogSender(msg.sender);\n        return msg.sender;\n    }\n    \n    event Log(address sender , uint256 balance);\n\n    event LogSender(address sender);\n\n    event LogValue(uint256 value);\n    \n}\n\n",
  "sourcePath": "/Users/Pranav_1/Desktop/dev/SyntaxError'23/contracts/loan.sol",
  "compiler": {
    "name": "solc",
    "version": "0.5.1+commit.c8a2cb62.Emscripten.clang"
  },
  "schemaVersion": "3.4.16",
  "updatedAt": "2023-10-28T10:10:59.713Z",
  "networkType": "ethereum",
  "devdoc": {
    "methods": {}
  },
  "userdoc": {
    "methods": {}
  }
}