{
  "contractName": "ReceiveEther",
  "abi": [
    {
      "constant": false,
      "inputs": [],
      "name": "receive",
      "outputs": [],
      "payable": true,
      "stateMutability": "payable",
      "type": "function"
    },
    {
      "constant": false,
      "inputs": [],
      "name": "fallback",
      "outputs": [],
      "payable": true,
      "stateMutability": "payable",
      "type": "function"
    },
    {
      "constant": true,
      "inputs": [],
      "name": "getBalance",
      "outputs": [
        {
          "name": "",
          "type": "uint256"
        }
      ],
      "payable": false,
      "stateMutability": "view",
      "type": "function"
    }
  ],
  "bytecode": "0x608060405234801561001057600080fd5b5060d98061001f6000396000f3fe608060405260043610604d576000357c01000000000000000000000000000000000000000000000000000000009004806312065fe0146052578063552079dc14607a578063a3e76c0f146082575b600080fd5b348015605d57600080fd5b506064608a565b6040518082815260200191505060405180910390f35b608060a9565b005b608860ab565b005b60003073ffffffffffffffffffffffffffffffffffffffff1631905090565b565b56fea165627a7a72305820d24cd19cd5a8ef6b9a79e59385f3d21341b5bbca9089c7da35f277699287120f0029",
  "source": "contract ReceiveEther {\n    /*\n    Which function is called, fallback() or receive()?\n\n           send Ether\n               |\n         msg.data is empty?\n              / \\\n            yes  no\n            /     \\\nreceive() exists?  fallback()\n         /   \\\n        yes   no\n        /      \\\n    receive()   fallback()\n    */\n\n    // Function to receive Ether. msg.data must be empty\n    function receive() external payable {}\n\n    // Fallback function is called when msg.data is not empty\n    function fallback() external payable {}\n\n    function getBalance() public view returns (uint) {\n        return address(this).balance;\n    }\n}\n",
  "sourcePath": "/Users/Pranav_1/Desktop/dev/SyntaxError'23/contracts/recether.sol",
  "compiler": {
    "name": "solc",
    "version": "0.5.1+commit.c8a2cb62.Emscripten.clang"
  },
  "schemaVersion": "3.4.16",
  "updatedAt": "2023-10-28T21:01:00.310Z",
  "networkType": "ethereum",
  "devdoc": {
    "methods": {}
  },
  "userdoc": {
    "methods": {}
  }
}