{
  "contractName": "ReceiveEther",
  "abi": [
    {
      "constant": false,
      "inputs": [],
      "name": "receive",
      "outputs": [],
      "payable": true,
      "stateMutability": "payable",
      "type": "function"
    },
    {
      "constant": false,
      "inputs": [],
      "name": "fallback",
      "outputs": [],
      "payable": true,
      "stateMutability": "payable",
      "type": "function"
    },
    {
      "constant": true,
      "inputs": [],
      "name": "getBalance",
      "outputs": [
        {
          "name": "",
          "type": "uint256"
        }
      ],
      "payable": false,
      "stateMutability": "view",
      "type": "function"
    }
  ],
  "bytecode": "0x608060405234801561001057600080fd5b5060d98061001f6000396000f3fe608060405260043610604d576000357c01000000000000000000000000000000000000000000000000000000009004806312065fe0146052578063552079dc14607a578063a3e76c0f146082575b600080fd5b348015605d57600080fd5b506064608a565b6040518082815260200191505060405180910390f35b608060a9565b005b608860ab565b005b60003073ffffffffffffffffffffffffffffffffffffffff1631905090565b565b56fea165627a7a7230582078c9314c4e2f5945a170c48916e2ef4a14069b006a015db15793ace4d97bc9690029",
  "source": "contract ReceiveEther {\r\n    /*\r\n    Which function is called, fallback() or receive()?\r\n\r\n           send Ether\r\n               |\r\n         msg.data is empty?\r\n              / \\\r\n            yes  no\r\n            /     \\\r\nreceive() exists?  fallback()\r\n         /   \\\r\n        yes   no\r\n        /      \\\r\n    receive()   fallback()\r\n    */\r\n\r\n    // Function to receive Ether. msg.data must be empty\r\n    function receive() external payable {}\r\n\r\n    // Fallback function is called when msg.data is not empty\r\n    function fallback() external payable {}\r\n\r\n    function getBalance() public view returns (uint) {\r\n        return address(this).balance;\r\n    }\r\n}\r\n",
  "sourcePath": "C:\\Users\\91630\\Desktop\\syntax-error1\\contracts\\contracts\\recether.sol",
  "compiler": {
    "name": "solc",
    "version": "0.5.1+commit.c8a2cb62.Emscripten.clang"
  },
  "schemaVersion": "3.4.16",
  "updatedAt": "2023-10-28T10:26:13.521Z",
  "devdoc": {
    "methods": {}
  },
  "userdoc": {
    "methods": {}
  }
}