{
  "contractName": "receiveMoney",
  "abi": [
    {
      "constant": false,
      "inputs": [],
      "name": "receivemoney",
      "outputs": [],
      "payable": true,
      "stateMutability": "payable",
      "type": "function"
    }
  ],
  "bytecode": "0x6080604052348015600f57600080fd5b5060748061001e6000396000f3fe6080604052600436106039576000357c010000000000000000000000000000000000000000000000000000000090048063c40e4c9314603e575b600080fd5b60446046565b005b56fea165627a7a72305820755f667adc69546a2c4322357f53bc61ef448ea21d1200c122c3c63e161995710029",
  "source": "// SPDX-License-Identifier: MIT\r\npragma solidity >=0.4.22 <0.9.0;\r\n\r\n\r\ncontract receiveMoney{\r\n    function  receivemoney() public payable{\r\n        \r\n    }\r\n}",
  "sourcePath": "C:\\Users\\91630\\Desktop\\syntax-error1\\contracts\\contracts\\test.sol",
  "compiler": {
    "name": "solc",
    "version": "0.5.1+commit.c8a2cb62.Emscripten.clang"
  },
  "schemaVersion": "3.4.16",
  "updatedAt": "2023-10-28T07:46:06.823Z",
  "devdoc": {
    "methods": {}
  },
  "userdoc": {
    "methods": {}
  }
}