{
  "contractName": "sendEth",
  "abi": [
    {
      "constant": true,
      "inputs": [],
      "name": "contractOwner",
      "outputs": [
        {
          "name": "",
          "type": "address"
        }
      ],
      "payable": false,
      "stateMutability": "view",
      "type": "function"
    },
    {
      "inputs": [],
      "payable": false,
      "stateMutability": "nonpayable",
      "type": "constructor"
    }
  ],
  "bytecode": "0x608060405234801561001057600080fd5b50336000806101000a81548173ffffffffffffffffffffffffffffffffffffffff021916908373ffffffffffffffffffffffffffffffffffffffff16021790555060e38061005f6000396000f3fe6080604052600436106039576000357c010000000000000000000000000000000000000000000000000000000090048063ce606ee014603e575b600080fd5b348015604957600080fd5b5060506092565b604051808273ffffffffffffffffffffffffffffffffffffffff1673ffffffffffffffffffffffffffffffffffffffff16815260200191505060405180910390f35b6000809054906101000a900473ffffffffffffffffffffffffffffffffffffffff168156fea165627a7a72305820372a3e36b827461819488c873105c96ffb4d7d15fc48bfcf0e0468ba5287988b0029",
  "source": "// SPDX-License-Identifier: MIT\npragma solidity >=0.4.22 <0.9.0;\n\ncontract sendEth {\n\n  address public contractOwner;\n\n  constructor() public {\n    contractOwner = msg.sender;\n  }\n\n\n\n\n\n  \n}\n",
  "sourcePath": "/Users/Pranav_1/Desktop/dev/SyntaxError'23/contracts/sendEth.sol",
  "compiler": {
    "name": "solc",
    "version": "0.5.1+commit.c8a2cb62.Emscripten.clang"
  },
  "schemaVersion": "3.4.16",
  "updatedAt": "2023-10-27T21:03:12.128Z",
  "networkType": "ethereum",
  "devdoc": {
    "methods": {}
  },
  "userdoc": {
    "methods": {}
  }
}