{
  "contractName": "sendEth",
  "abi": [
    {
      "constant": true,
      "inputs": [],
      "name": "get_output",
      "outputs": [
        {
          "name": "",
          "type": "string"
        }
      ],
      "payable": false,
      "stateMutability": "pure",
      "type": "function"
    }
  ],
  "bytecode": "0x608060405234801561001057600080fd5b5061015f806100206000396000f3fe60806040526004361061003b576000357c01000000000000000000000000000000000000000000000000000000009004806354f8a2f214610040575b600080fd5b34801561004c57600080fd5b506100556100d0565b6040518080602001828103825283818151815260200191508051906020019080838360005b8381101561009557808201518184015260208101905061007a565b50505050905090810190601f1680156100c25780820380516001836020036101000a031916815260200191505b509250505060405180910390f35b60608060405190810160405280602281526020017f48692c20796f757220636f6e74726163742072616e207375636365737366756c81526020017f6c7900000000000000000000000000000000000000000000000000000000000081525090509056fea165627a7a72305820df1b69e40cbe255c85f7e43355d2411a6f10a8867d6a7bb950e7ee7deabc49e90029",
  "source": "// SPDX-License-Identifier: MIT\npragma solidity >=0.4.22 <0.9.0;\n\ncontract sendEth {\n\n  function get_output() public pure returns (string memory){\n        return (\"Hi, your contract ran successfully\");\n    }\n  \n}\n",
  "sourcePath": "/Users/Pranav_1/Desktop/dev/SyntaxError'23/contracts/sendEth.sol",
  "compiler": {
    "name": "solc",
    "version": "0.5.1+commit.c8a2cb62.Emscripten.clang"
  },
  "schemaVersion": "3.4.16",
  "updatedAt": "2023-10-27T19:13:55.150Z",
  "networkType": "ethereum",
  "devdoc": {
    "methods": {}
  },
  "userdoc": {
    "methods": {}
  }
}